:020000041000EA
:1000000000B5324B212058609868022188439860DF
:10001000D860186158612E4B002199600221596106
:100020000121F02299502B49196001219960352056
:1000300000F044F80222904214D00621196600F024
:1000400034F8196E01211966002018661A6600F04E
:100050002CF8196E196E196E052000F02FF8012189
:100060000842F9D1002199601B49196000215960AB
:100070001A491B48016001219960EB211966A021F2
:10008000196600F012F800219960164914480160C1
:100090000121996001BC002800D000471248134993
:1000A000086003C880F30888084703B5996A0420EC
:1000B0000142FBD001200142F8D103BD02B5186610
:1000C0001866FFF7F2FF186E186E02BD00000240BE
:1000D000000000180000070000035F00212200005C
:1000E000F4000018222000A00001001008ED00E03C
:1000F00000000000000000000000000074B24E7A12
:1001000000200420F7010010C3010010C5010010F9
:10011000C1010010C1010010C1010010C101001097
:10012000C1010010C1010010C1010010C701001081
:10013000C1010010C1010010C9010010CB01001065
:10014000CD010010CD010010CD010010CD01001037
:10015000CD010010CD010010CD010010CD01001027
:10016000CD010010CD010010CD010010CD01001017
:10017000CD010010CD010010CD010010CD01001007
:10018000CD010010CD010010CD010010CD010010F7
:10019000CD010010CD010010CD010010CD010010E7
:1001A000CD010010CD010010CD010010CD010010D7
:1001B000CD010010CD010010CD010010CD010010C7
:1001C00000BE00BE00BE00BE00BE00BE00F04BF888
:1001D000103800BEF2EB8871B0D00010DCD00010F7
:1001E0003402001090A31AE700202149086006C8D5
:1001F00081F3088810471F48006800282FD10DA4FC
:100200000ECC002902D000F012F8F9E71A491B4A77
:10021000002000E001C19142FCD1194988471949E9
:1002200088471949884700BEFDE701C901C29A42C3
:10023000FBD37047DCD00010C0000020780F0020F6
:1002400094DF0010000004200000042094DF001060
:1002500000100420001004200000000070470B482C
:1002600004F02AFB0047EFF30580C0B2704700009E
:1002700008ED00E0000000D0780F0020A04500202D
:1002800075310010891000103131001057560000F0
:1002900006005250ABB36053E4C400100600525045
:1002A000861C0302F4C40010060052505422A29D82
:1002B00004C5001005005250DE65F46894DF00109C
:1002C000F8B5C04610B5064C2378002B07D1054B76
:1002D000002B02D0044800E000BF0123237010BDB2
:1002E000981000200000000098AA0010044B10B5E0
:1002F000002B03D00349044800E000BF10BDC046F6
:10030000000000009C10002098AA0010064A1388E4
:1003100001331380054A138801331380044A13887C
:10032000013313807047C0468A4500208C45002069
:100330008E45002000B587B005AB04AA03A90B4881
:1003400001F02AF8002803D10849094802F08EFF7D
:10035000059A0499039800F0E3FF064B00930122ED
:100360000021062002F09AFF07B000BD88070200B6
:1003700098AA0010406BED0770B504000E00150040
:100380000F4B196802F076FE0221300001F05CF894
:100390000221280001F058F822003032216BC023DE
:1003A0001B02194080235B011A43116020002C308E
:1003B000E26A602151406E220A4003431A6070BD18
:1003C0000806002030B583B00C00002313E06B4614
:1003D000DA1D1570002106E083699B06FCD41378B2
:1003E0000360013101320029F6D023780D3B5A42D7
:1003F0005341DBB201342578002D27D0002BE6D104
:10040000134BC3185A4253415B00124A9B5EAB42E6
:100410000DD06B46DA1D157000210029E5D18369E6
:100420009B06FCD41378036001310132F5E76B467B
:10043000DA1D0D23137000210029EAD183699B0680
:10044000FCD41378036001310132F5E703B030BD0D
:100450000080FCBF7045002010B5002102F088FA32
:1004600010BD70B50500D0231B0610229A611A201A
:10047000FFF7F2FF002407E0D0231B0610229A6149
:100480001A20FFF7E9FF0134072C08DC2B00234179
:10049000DB07F1D5D0231B0610225A61F0E7D023E9
:1004A0001B0610225A611A20FFF7D6FF70BD00000C
:1004B000F0B5284CA54404000E00274B984241D0CB
:1004C0000025002111E06B4607331B780A2B09D069
:1004D0000D2B07D04A1C02A84354204B9A4233DC10
:1004E000110002E0002912DC0021A36910200200A3
:1004F0001A4018422AD16B46D81D002AE3D1A369BD
:10050000DB06FCD42368037001320130F5E74A1C96
:100510006F4608203F187B5402310A236F46381873
:1005200083540FB2E8B23A0002A908F0E7FAAE42EB
:1005300001D00021D9E73A0002A9032008F0DEFA31
:100540000021D2E70125BCE70021CEE7044B9D4402
:10055000F0BDC046F4EFFFFF00800340FE0F000037
:100560000C10000010B582B0040007E06A46D11DEF
:100570000B700122032008F0C1FA01342378002B0C
:10058000F4D102B010BD0000F0B583B0802252015A
:1005900000211E4805F0F8F800240127002F27D07D
:1005A00014221B49032008F02FFB0600002508E059
:1005B0000134E4B2164B5B5D0A2B11D0082B11D02D
:1005C0000135B54216DA124B585D05F0CFF90F4BE5
:1005D0001B5D002BECD10E4B1A780C4B1A55E7E73C
:1005E0000027EBE70B48FFF7BDFF0B4805F024FAA7
:1005F00003B0F0BD6B46DD1D2A000A21032008F080
:10060000F5FB2B781C2BC9D1F2E7C04670350020D2
:1006100064160020CCAA0010F4AA0010F8B52A48ED
:1006200005F00AFAFFF7B0FF00220021012A14DCCE
:10063000264B985C0400303CE4B2092C06D88B00B1
:1006400059184900411830390132EFE72048FFF7C7
:1006500089FF204805F0F0F935E01C4F3B781E4E2D
:1006600033707B7873701D4805F0E6F91C48FFF77E
:1006700079FF1C4805F06AF8040080256D012A0006
:10068000390005F087F80D236355174B0A22E25411
:10069000200005F06DF82000FFF764FF1348FFF716
:1006A00061FFEFF3108472B6A1273F0329003800E1
:1006B0000AF0D2F92A00310038000AF0B5F9240412
:1006C000240C84F31088F8BD10AB001070350020A6
:1006D00028AB001058AB0010641600207CAB001053
:1006E00090AB00100210000001100000A0AB001041
:1006F00070B58CB03A4805F09FF9FFF745FF002030
:100700000021052814DC374B1A5C1300303BDBB2A8
:10071000092B06D88B00591849005118303901307F
:10072000EFE73148FFF71EFF304805F085F954E048
:1007300068462F4B020031CB31C231CB31C231CBB5
:1007400031C231CB31C200220B2A40D890006B4617
:10075000C3588B4239D00132F6E7224AD05C254A91
:10076000D0540133052BF8DD234805F065F9234803
:10077000FFF7F8FE224804F0E9FF040080256D0130
:100780002A00184905F006F80D2363551D4B0A226F
:10079000E254200004F0ECFF2000FFF7E3FE1A48CB
:1007A000FFF7E0FEEFF3108472B6A02636032900AF
:1007B00030000AF051F92A000E4930000AF034F9ED
:1007C0002404240C84F3108807E00023CAE70F48B0
:1007D000FFF7C8FE0E4805F02FF90CB070BDC046FB
:1007E000DCAB00107035002028AB001058AB0010B7
:1007F00028B4001064160020F0AB001004AC001008
:10080000021000000110000018AC00104CAC0010E9
:100810007CAC001010B5303804000B00303B303A8F
:10082000642060439900C91849004018801810BD21
:10083000F0B5CE46474680B587B03F4805F0FCF896
:10084000FFF7A2FE3D4C20786178A278FFF7E2FF27
:10085000C6B23B4D2E7020796179A279FFF7DAFF9D
:10086000C7B26F70207A617AA27AFFF7D3FF814610
:10087000C3B29846AB70207B617BA27BFFF7CAFFB7
:10088000C3B29C46EB7002AA2E4B303332CB32C23D
:100890001B6813600023012B14DC294AD45C9A00E6
:1008A00002AD5259944206D14A46FF2A03D8FF2886
:1008B00001D80133EFE72448FFF754FE234805F041
:1008C000BBF834E06346009343463A0031002048C9
:1008D00005F0B2F81F48FFF745FE1F4804F036FF49
:1008E000040080256D012A00144904F053FF0D23F4
:1008F00063551A4B0A22E254200004F039FF20000D
:10090000FFF730FE1648FFF72DFEEFF3108472B6A6
:100910009F263603290030000AF09EF82A00084975
:1009200030000AF081F82404240C84F3108807B006
:10093000C0BCB946B046F0BD9CAC0010703500207C
:100940006416002028B40010B4AC0010D8AC00101D
:10095000F0AC001008AD0010021000000110000003
:1009600014AD001030B589B000241A2C06DC035DEC
:1009700001AA1355552B03D00134F6E70124644234
:10098000002507E001AB585DFFF76BFD0A2001F081
:1009900033FF0135AC42F5DA09B030BD70B5060061
:1009A0000C00881C04F0D2FE05002200310004F087
:1009B000F1FE0D232B550134033B2B55280004F089
:1009C000D7FE280070BD0000F8B5CE46474680B57A
:1009D00000AF804600241A2C05DC43461A5D552AD8
:1009E00002D00134F7E700240134A3000733DB0809
:1009F000DB006A46D31A9D46E9460025002608E03A
:100A000043465A5D4B4698190F4903F015FF0436CB
:100A10000135A542F4DB701C04F098FE0400494641
:100A200009F074FE200004F0A3FE31B22000FFF7AD
:100A3000B5FF0100023632B2032008F05FF8BD4670
:100A4000C0BCB946B046F8BD50AD001070B5050049
:100A5000141E02D0012C05D070BD01000448FFF720
:100A6000B1FCF7E729000348FFF7ACFCF4E7C04608
:100A7000004003400080034070B504000B48FFF7BE
:100A800071FD022C0DD008DC002C0CD0012C00D103
:100A9000074D2800FFF766FD70BD032CF9D1054D09
:100AA000F7E7054DF5E7054DF3E7C0467CAF0010CD
:100AB00058AE0010ECAE001058AD0010DCAD0010C8
:100AC00010B5401801380378174A1370332B20D023
:100AD0000AD8312B16D0322B22D1144B02221A60A5
:100AE0000220FFF7C9FF13E0392B19D11048FFF797
:100AF00039FDFA20C00001F07FFE0121012002F043
:100B0000C3FDFEE7094B01221A600120FFF7B4FF85
:100B100010BD064B03221A600320FFF7ADFFF7E775
:100B20000448FFF71FFDF3E79B4500201833002022
:100B300088AF0010B0AF0010F8B50600094F0300F1
:100B40003A000021002003F08BFE451C280004F031
:100B5000FDFD040033003A00290003F081FE20006F
:100B6000F8BDC046D4AF0010F0B5D6464F46464655
:100B7000C0B584B00E0015001C00FFF7DDFF0700B4
:100B80003000FFF7D9FF06002800FFF7D5FF05006A
:100B90002000FFF7D1FF0400154B9A460290019503
:100BA00000963B0052460021002003F059FE431CF2
:100BB0009946180004F0CAFD8046029401950096FB
:100BC0003B005246494603F04BFE380004F0D0FD8E
:100BD000300004F0CDFD280004F0CAFD200004F030
:100BE000C7FD404604B0E0BCBA46B146A846F0BDD9
:100BF000D8AF001070B5401801380378174D2B702E
:100C0000D72363220C210A20FFF7AEFF04002B78C4
:100C1000332B15D8322B12D2312B1AD11048FFF7B3
:100C2000A1FC1048FFF79EFC2000FFF79BFC200072
:100C300004F09EFD0C48FFF795FCFFF7F9FD70BD31
:100C4000392B06D1094B00221A600020FFF714FF50
:100C5000F5E70748FFF786FCF1E7C0469B45002013
:100C6000E8AF001028B0001038B000101833002092
:100C7000B0AF001010B54018013803780F4A137058
:100C8000322B0DD0392B11D0312B03D00C48FFF76C
:100C900069FC04E00B48FFF765FCFFF729FD10BD78
:100CA0000948FFF75FFCFFF7B9FCF8E7074B0022A4
:100CB0001A600020FFF7E0FEF1E7C0469B450020E8
:100CC000B0AF001054B00010B4B0001018330020C2
:100CD00010B5401801380378184A1370332B1ED012
:100CE0000AD8312B14D0322B20D1154B01221A7087
:100CF0001448FFF737FC11E0392B17D1104B0422B1
:100D00001A70114B00221A600020FFF7B5FE05E0B3
:100D10000B4B00221A700D48FFF724FC10BD084B46
:100D200002221A700A48FFF71DFCF7E7044B042261
:100D30001A700848FFF716FCF0E7C0469B450020F4
:100D40001006002038B100101833002010B1001038
:100D500060B10010B0AF0010F8B505000E0014002F
:100D6000264B00221A70022C0BD0032C0CD0244BE3
:100D70001B78A34230D0220031002800FFF766FE26
:100D8000F8BDFFF7EFFDF0E7AB19013B1A781B4BFD
:100D90001A701C4F3868FFF76FFE3B68022B16D0A5
:100DA00008DC002B0ED0012BE1D131002800FFF729
:100DB00021FFDCE7032BDAD1220031002800FFF706
:100DC00087FFD4E731002800FFF77AFECFE7310034
:100DD0002800FFF74FFFCAE7022C0AD03100280095
:100DE000FFF7DCFD0100B21C12B2032007F086FE03
:100DF000C1E72800FFF7E8FDBDE7C0469B4500209E
:100E00001006002018330020F0B58DB004000D004E
:100E10000392272702AB9C4667443A000A2107F059
:100E2000E5FF0023FB56172B3BD012DC002B00D133
:100E3000B8E0132B0BD1200007F0E8FD06000128D5
:100E40002CD1039A21006A4804F0F6FD26E0012621
:100E500024E01C2B21D12100664804F0EDFD0BAEEF
:100E600032000921200007F0C1FF0022B35E002BF1
:100E700000DC8BE080221201934200DD32800BAB5C
:100E800000229A5E2900200007F0BEFE0700061E21
:100E900004DD0BAB1880002073E0012630000DB09C
:100EA000F0BD262602AB9C46664432000521200098
:100EB00007F0F4FE3378DB071DD40BAE32000921B6
:100EC000200007F093FF0022B35E002B00DC8DE0D2
:100ED00080221201934200DD32800BAB00229A5E29
:100EE0002900200007F090FE0700061ED6DD0BABA0
:100EF0001880002035E006AE32000421200007F003
:100F000075FF0F2202AB9C4662440B21200007F0C4
:100F10006DFF32787378B178F078019000912100FC
:100F2000354804F089FD05AE32000521200007F0A8
:100F30005DFF3188314804F07FFD232202AB9C46DF
:100F40006244012313700421200007F0A7FEB4E7D8
:100F500086B29B1B19B228182200FFF7FDFEF61976
:100F600030B20BAB00229B5E8342F1D1012695E7A4
:100F700086B29B1B19B228182200FFF7EDFEF61966
:100F800030B20BAB00229B5E8342F1D1200007F010
:100F90006DFD0600012800D080E72100184804F00C
:100FA0004BFD7BE72100174804F046FD0123039A1F
:100FB0000121200007F020FCC0B284420FD1A00024
:100FC0000130C000C0239B019C46604408F090FDA6
:100FD000020021000C4804F02FFD01265EE72100ED
:100FE0000A4804F029FD0126764257E7052655E711
:100FF00008B20010D4B1001088B10010C4B10010C4
:10100000ECB1001044B2001090B200106CB20010AD
:101010000068C840C0B2704770B5040015000A00EF
:101020001449FFF7F1FE052802D000232B8070BD84
:101030002A88114B1B689A42F9DD80221201002197
:10104000200007F0E1FD002802D000232B80EEE70E
:1010500021000A4804F0F0FC094B1B78A34203D09E
:10106000200007F003FDF0E721220649032007F0E6
:1010700045FDF5E7082700200C060020B0B200105F
:1010800010060020E0B20010F0B5DE4657464E468E
:101090004546E0B599B0FFF74DF904F0D9FC0D22B3
:1010A0000C218048FFF768F9092208217E48FFF7E4
:1010B00063F9042000F0FAF9D024240610256562B3
:1010C000052000F0F3F92023A3620022012105206E
:1010D00000F0D2F96561002000F0E8F90F3D65628B
:1010E000012000F0E3F90223A362656163616F4CA4
:1010F00000212000FFF78CFF834608212000FFF726
:1011000087FF824610212000FFF782FF0700182189
:101110002000FFF77DFF0500654C00212000FFF750
:1011200077FF060008212000FFF772FF8046614C20
:1011300000212000FFF76CFF814608212000FFF707
:1011400067FF5B461693303B19005B4B4B4352469F
:10115000179251463039594A514359183C00303C96
:101160006201121B93001B19DB005B182A00303A46
:1011700064215143C9183200303A93009B185B0038
:101180005B184246303AD3184D4CA24623604C4679
:10119000303CA3001C196400303820184201121A98
:1011A00093001B18DB00474883460360464801F064
:1011B00023FB464C200004F00DFC454A45494648B7
:1011C00004F03AFC200004F005FC08F009FE08F0E9
:1011D00027FE08F0F5FD08F033FE08F077FE3F48E3
:1011E00008F080FF3E4C10208146A144572249461A
:1011F000684604F0CFFA20686168A268E36808F0E6
:1012000083FE3849384804F017FCD7230093743B19
:101210000C220A21354804F00FFC4046029001964A
:1012200000953B00179A1699314804F005FC5B467F
:101230001968304804F000FC534619682E4804F041
:10124000FBFB57224946684604F0A4FA206861680F
:10125000A268E36808F0AAFE11222849002007F0DE
:101260004DFC642001F0C8FA254B19780D48FFF7B2
:101270001FF9192001F0C0FA224A23490020FFF784
:10128000CBFE224A22490120FFF7C6FE214A22490D
:101290000220FFF7C1FE172220490320FFF7B4FD0B
:1012A000DAE7C046004003400080034000000A1017
:1012B00004000A1000100A10A08601001027000088
:1012C000080600200C060020B80B000004B3001034
:1012D00040B300104CB3001058B300100D030010C1
:1012E00068B4001000F009106CB3001090B3001047
:1012F000ACB30010D0B30010F0B3001014B4001061
:10130000100600208A450020891300008C4500202B
:101310008A1300008E450020881300000827002053
:10132000F0B583B004000D00160000F023F900288A
:1013300001D003B0F0BD154F00973B000122012101
:10134000053001F0ABFF00962B0022000121104870
:1013500002F0ACF831006943200003F001FB040007
:101360000C4B009300220221042001F097FF00940F
:10137000230000220121052001F090FF00973B008F
:1013800002220021062001F089FFD2E7006CDC0276
:1013900000800240001BB700F0B5DE4657464E46BF
:1013A0004546E0B583B080468B4600920193042009
:1013B00002F076F8FA21890003F0D2FA8246A023DF
:1013C0005B0099462CE0013C002C20D025007D4399
:1013D0002900300003F0C4FA4045F4D12900300060
:1013E00003F0BEFA0029EED173019B1B9B009E19EE
:1013F000F6005B461E60009B1F60019B1C60012085
:1014000003B0F0BCBB46B246A946A046F0BD013FC2
:10141000002F01D03C00D7E701235B429C46E1440A
:101420004B460F2B09D956464B465E43044BF218E8
:10143000044B9A42F0D80727EAE70020E0E7C046CD
:10144000508EF4FF50F80C0010B58300084A944603
:1014500063441C6840226240C02414408022520130
:1014600013431C60C000034B9C466044416010BDA8
:1014700004C001400040014080000B4B9C4660448A
:1014800000290DD00823002A0CD00422134302683F
:1014900053400C22134080225201104303607047D6
:1014A0000023F0E70022F1E704C0014010B501235A
:1014B0008340D0221206936293610521FFF7C4FF97
:1014C00010BD0000EFF3108072B6034B1B68002BB9
:1014D000FBD0BFF35F8F70472C0100D0BFF35F8F4D
:1014E000024B00221A6080F3108870472C0100D054
:1014F000F8B506000C001500FFF7E4FFE308F71845
:10150000F15C07222240012393400B4205D1DBB25C
:101510000B433B70FFF7E2FFF8BD2100280001F00C
:10152000A5FEF0B583B00600019114001F00FFF77F
:10153000C9FF00E00134BC420CD8E308F518F35CA5
:101540000721214001228A401A42F3D1D2B21A4324
:101550002A7001E001246442FFF7C0FF002C02DB87
:10156000200003B0F0BD019B002BF9D0089801F0DA
:101570007DFE0000034B1B6802201840431E98416B
:10158000C0B2704700C00640002307E0054A9A1821
:101590009200BFF35F8F0021116001331F2BF5D93B
:1015A0007047C04640000034054A1078431CDBB247
:1015B0001370172B02D9130010221A707047C046FF
:1015C0001106002000B583B00100044B00931F23D7
:1015D00018220348FFF7A5FF03B000BDD0B40010E8
:1015E00068260020074B9B68103080001950BFF31D
:1015F0005F8FBFF35F8F044B0021196082F3108867
:101600007047C04600ED00E0240100D010B5091A73
:10161000081F0A4B9C466144094A914208D8C307F7
:1016200006D440104005400D064B184380B210BD53
:10163000054B064A9921064801F07EFDFC07000093
:10164000FE0F000000E0FFFFECB400105CB70010DC
:101650001CB5001010B5091A04394C08090B08D143
:101660004905490D064A11430180064B2343438037
:1016700010BD054B054AA121054801F05DFDC0469E
:1016800000F0FFFF00F8FFFF6CB5001030B700104E
:101690001CB5001001238340034A10681840431E04
:1016A0009841C0B27047C04600E100E0002904D074
:1016B000034B1860034B18607047034B1860FBE73F
:1016C00080E200E000E100E080E100E010B50123ED
:1016D00083401800FFF7EAFF10BD0000012383409C
:1016E000014A13607047C04600E200E0024B9B686D
:1016F00010308000C058704700ED00E010B5FFF7D3
:10170000F5FF002805D0054BC01A2F2803D801206B
:1017100010BD0020FCE70020FAE7C04614060020B8
:1017200070B504000D00EFF3108672B60C4B1B6809
:10173000002BFBD0BFF35F8F2000FFF7D7FF094BD3
:10174000984201D0A84205D1320029002000FFF7BD
:1017500049FF70BD044B054A7C21054801F0ECFCB3
:10176000240100D0CD0100107CB5001090B700100E
:101770001CB50010F0B5DE4657464E464546E0B56E
:1017800089B0814601911500EFF3108A72B6744B4F
:101790001B68002BFBD0BFF35F8F724B0027DF5716
:1017A000002F40DB7C00E419A4006F4824180622B7
:1017B000A2566C4B1A706D4B9A684B4610339B00C7
:1017C000D35898461E001B1A2F2B38D9684B9845C2
:1017D0002FD105AE674B33807B009B46D819800024
:1017E000614B9846404402306349FFF70FFF708019
:1017F000624BB380FF23B371F571019B07935F4484
:10180000BF0047440ECE0EC701231C43A0465246DC
:1018100041464846FFF7E6FE09B0F0BCBB46B2467B
:10182000A946A046F0BD564B564ACD21564801F078
:1018300083FC564B534AD421534801F07DFCC043EE
:1018400040440C2103F08CF8002912D101239E435F
:10185000B34633000026DA79AA4211D90621595637
:1018600000290CDB4A00521892001E003E4B9B18C8
:10187000F1E7474B434AE021434801F05DFC1E007D
:10188000002E3BD005AB434A1A80813A5A8006238A
:10189000F3560293002B18DABD20000205AB9B46DD
:1018A0009880029A9A71DD71019A0792301D210089
:1018B000FFF7ACFEB080B7717B00DB199B002A4FAD
:1018C000FF185B4607CB07C7A1E77800C019800067
:1018D000254BC0180430321DB388D90A1C2907D102
:1018E0005B055915023149005118FFF78FFED5E706
:1018F000294B2A4AA721244801F01EFC05AE1D4BA6
:1019000033807B000293D8198000174A904602006A
:1019100042440392901C1849FFF778FE7080039AA6
:10192000101D5946FFF772FEB0801D4B5A464146C6
:10193000521A524153431B0DB371F571019A07922C
:10194000029B9C466744BF0047440ECE0EC7114B16
:101950005A461380813B538001231C43A04656E71F
:10196000240100D0994500201406002000ED00E07D
:10197000CD01001000A1FFFF4406002000BDFFFFC5
:10198000B4B5001078B700101CB50010DCB500101D
:1019900004B600100148000078B6001068B70010C7
:1019A000AAAA0000F0B5CE46474680B583B006002F
:1019B0000D00EFF3108872B6564B1B68002BFBD05E
:1019C000BFF35F8F544B9A6834001034A300D7588C
:1019D000524B9F4207D0AF4200D199E00197504B44
:1019E000FB1A2F2B09D9424639003000FFF7FAFDC8
:1019F00003B0C0BCB946B046F0BD3000FFF74AFEA8
:101A0000814600213000FFF761FEBFF35F8FFEF7D4
:101A10002AFC002801D0844211D10123019C9C435F
:101A20000022A368AB4212D00622A256002A0DDB88
:101A300053009B189B002200394CE418F1E72C213D
:101A4000384B394AFF31394801F076FB2200AB426E
:101A500057D106256557002D39DB6B005B199A00BD
:101A60002F4B9B189A68A260DA79E27106229A5687
:101A7000A2719B795BB2002B10DABD200002A0801E
:101A80006B005B199B00264AD318294A117899717B
:101A9000157049463000FFF719FEA4E7201D6B00C2
:101AA0005B199B001E4A9B181A1D9B88D90A1C298A
:101AB00007D15B055B15023359005118FFF7A6FDEE
:101AC000DDE71C4B1C4AA721184801F035FB002814
:101AD00012D1002A0ED0FF239371184B9380144A21
:101AE0001378A371164B0E49641A644163431B0DAE
:101AF0001370CEE7094FF2E7201D1249FFF7AAFD48
:101B0000C7E76021104B084AFF31084801F014FB79
:101B1000024F68E7240100D000ED00E0CD01001085
:101B20001406002090B6001048B700101CB5001035
:101B30009945002078B6001068B7001000BDFFFF7F
:101B4000AAAA00004E060020B4B6001070B504002A
:101B5000012606432D4BF31A2F2B28D8FEF783FBC3
:101B600000282BD0EFF3108C72B6294B1B68002B8A
:101B7000FBD0BFF35F8F274D22002449521A5241F8
:101B800055432D0D6DB2244B9B6880001B58B3420A
:101B90001BD00022032A32D853009B189B001B49FC
:101BA000CB189B795BB2AB421FD00132F2E7C22166
:101BB0001A4B1B4A49001B4801F0BEFA88211A4BF8
:101BC000174AFF31174801F0B7FA134B9B68174AC1
:101BD0001A50174B1A78A2711D70BFF35F8F0C4B10
:101BE00000221A608CF3108870BD08005300991809
:101BF00089004118FF268E710E4A8A80E9E7CC21C0
:101C00000D4B074A4900074801F096FA14060020D8
:101C1000240100D0AAAA000000ED00E0BCB600102C
:101C200014B700101CB50010E4B60010CD01001070
:101C30009945002000BDFFFFF0B600100022044BC4
:101C400002E0044902C30132072AFAD97047C046AC
:101C500000E400E08080808000B583B00100D023E4
:101C60001B061B680648C018064B0093052300227C
:101C7000FFF757FC002801DB1F23181A03B000BD33
:101C800088450020F8B60010024B9C46614489004C
:101C9000016070474000003410B50C00CB688342EF
:101CA00007D108000B699847002809D020686168AF
:101CB00010BD9621054B064A4900064801F03CFA42
:101CC0000023E36000200021F2E7C046ACB700101B
:101CD000A8BA0010C0B7001070B505000C000800CD
:101CE00000F01AFE200000F023FF0849200000F059
:101CF00063FEFFF759FC064B9C4660448000686019
:101D00002C75A400034BE55070BDC0461D2000108B
:101D100040000034203300200A4B1A68EFF3108192
:101D200072B61368002BFCD0BFF35F8F054B1B68A6
:101D3000BFF35F8F00221A6081F3108840BF00203C
:101D4000002170473C35002010B5002922D00368DF
:101D50001B7B99421ED8174B9C466144090183683E
:101D60009C4661440C684968002A19D003681B7BB3
:101D70009A4215D883680F488446624412019A1823
:101D800010685368020001208B4201D80ED0002059
:101D9000C0B210BD084B094A3B21094801F0CCF9FB
:101DA000054B064A3B21064801F0C6F9A242EFD88E
:101DB000EDE7C046FFFFFF0F0CB8001010BB00108E
:101DC000C0B7001010B500291ED0037B99421BD864
:101DD0004B005B18033B0468A4466344002919D0F8
:101DE000002A1DD0914221D0002A25D0047BA24296
:101DF00022D80468500080180338201881701978A0
:101E000000291FD11A7010BD104B114A68211148CA
:101E100001F092F9104B114A6F310E4801F08CF924
:101E20000F4B0E4A70210B4801F086F90D4B0B4AFF
:101E30007121084801F080F9044B054A68210548E2
:101E400001F07AF941701A70DDE7C04640B8001021
:101E50007CBB00105CB80010BCB8001058BB001070
:101E6000C8B80010D4B8001070B506000D001400FA
:101E7000002914D0002A14D080687368984700287D
:101E800006D0220029003000FFF79CFF280007E061
:101E90002A0021003000FFF795FF200000E010002D
:101EA00070BD0800FCE70000F0B583B005000092AB
:101EB00001930AAB1C780BAB1F78002C26D003686B
:101EC0005A7B944207D10123002B19D1002C3BD11E
:101ED000200003B0F0BD002C0CD01A7B944209D82E
:101EE0001A6863001B19033BD3189B78002BEBD0B7
:101EF0000123E9E73E4B3F4A68213F4801F01CF9C6
:101F00003E4B3F4A65213F4801F016F903689C7B30
:101F1000002CDBD012D01A7B94420FD86200121929
:101F2000033A19688C46624451789973002900D1AC
:101F3000D9730023937053701370C7E72C4B2D4A4D
:101F400068212D4801F0F8F8002C3AD02B681B7B53
:101F50009C4236D82C4BE3181B01AA689446634474
:101F6000009A1A60019A5A60089A9A60099ADA608F
:101F70002E68002C2BD030D0337B9C422DD86300B0
:101F80001B19033B32689446634400229A705A70CE
:101F90001A70717B22003000FFF766FF7073844275
:101FA00000D095E7287D009A019B00F04DFD061EAC
:101FB00001D0002F17D00C9B002B00D188E71E709A
:101FC00086E7124B124A3B210E4801F0B5F8114B3F
:101FD000114AA521084801F0AFF8054B054A6821D0
:101FE000054801F0A9F82868210000F055FFE2E754
:101FF00040B800107CBB00105CB80010ECB80010BA
:1020000088BB0010C0B70010FFFFFF0F0CB8001016
:1020100010BB0010BCB700106CBB0010F0B5DE4662
:1020200057464E464546E0B58BB0099000230893CD
:102030008200B24BD658370032E0B14BB14A3F2153
:10204000B14801F079F8B14BB14A3B21B14801F0F8
:1020500073F8B14BB14A8C21AE4801F06DF8B04B2A
:10206000AE4A9021AB4801F067F8A84BAD4A402139
:10207000A84801F061F82A686B68099800F0E4FC50
:1020800000239A4698467B68BFF35F8F00221A6050
:1020900086F310884346002B51D1002800D126E159
:1020A00000F046FC02000B1EC7DB0020002106905A
:1020B00007917868EFF3108672B601680029FCD0AA
:1020C000BFF35F8F396888464C7B002C32D0BAD082
:1020D000097B8C42B7D8944965182D01B9688C46A4
:1020E000654428686968801A99410029C3DC01D1D8
:1020F0000028C0D10021404600F0C4FEA042A8D173
:102100002A686B6806920793AB689846EB689A4614
:102110004346002BA3D0002CA7D03B681B7B9C42DE
:10212000A3D8631EFA68D35C08931B021843386176
:102130000020A8E700239A4698460020A3E7089BC2
:102140001B022343994651461800C04705000E0064
:102150007A68EFF3108B72B6136859424B41D9B2CB
:10216000002BF9D1BFF35F8F002E26DB002E52DD4E
:102170003B69002B53D04B4572D100F0D9FB0200D4
:102180000B1E73DB0100180052197341984202D8EC
:1021900004D1914202D901225242D317002B6BDBAA
:1021A000002104910131039102945146019141466D
:1021B00000913800FFF778FE49E03B69002BD5D04D
:1021C0004B451CD1069A079B10001900521BB341C6
:1021D000994202D804D1904202D901225242D31727
:1021E000002B12DB0021049101310391029451462E
:1021F0000191414600913800FFF756FE27E04B4B16
:10220000464A9F21434800F097FF3D4B3D4A3F21FE
:102210003D4800F091FF002E01D1002DA8D13A6871
:10222000002C45D0537B9C422CD1012100293FD169
:10223000D37B002B42D1D473002C52D03B681B7B44
:102240009C424ED8FA68013C135D013313550023BC
:102250003B617A68BFF35F8F13608BF310881FE7D1
:10226000324B2E4AA2212B4800F066FF244B254A10
:102270003F21254800F060FF214B224A3F212248A0
:1022800000F05AFF002C0DD0137B9C420AD863004B
:102290001B19033B1068844663449B78002BC5D010
:1022A0000121C3E7224B234A6821234800F044FF61
:1022B000224B234AF621204800F03EFF002B0AD093
:1022C000117B8B4207D85900CB18033B11688C4611
:1022D00063445C70AFE7164B164A6821164800F05D
:1022E0002BFF0A4B0F4A40210A4800F025FF0BB094
:1022F000F0BCBB46B246A946A046F0BD2033002044
:1023000014B90010DCBA001030B900100CB800107D
:1023100010BB0010C0B7001088B90010F4BA00104C
:10232000A0B9001034BB0010FFFFFF0FACB90010C4
:1023300040B800107CBB00105CB80010E8B9001079
:1023400048BB001010B50A4B5B68002B04D00A2173
:102350000848FFF799FC10BD054C2300064A1021E0
:10236000206800F0AFFC03212000FFF7B5FCEEE78A
:102370005C0600203C350020491D001010B5064BBE
:102380005B68002B01D0044810BD044B044A5C215B
:10239000044800F0D1FEC0465C0600200CBA0010D4
:1023A0001CBB0010C0B70010F0B5DE4657464E46C5
:1023B0004546E0B58BB0804616001F00149B9A4638
:1023C000159B994616AB1B789B461F2302AA944681
:1023D000634400221A7032E0002809D04246126895
:1023E000127B904204D8421E4146C9688A5C48E08C
:1023F000434B444A4021444800F09EFE0798002B7E
:1024000075D05B46002B72D04946D04704000D00C2
:1024100003000B4300D171E0002946DB00F088FA8D
:1024200006000F1E55DB36196F41B94202D804D1A0
:10243000B04202D901267642F717002F4FDB434600
:102440005A68EFF3108472B6136859424B41D9B2FF
:102450000791002BF8D1BFF35F8F1F3302AA944678
:10246000634404930023039302934B460193534622
:10247000009332003B004046FFF716FD031EABD130
:10248000020041464968BFF35F8F00250D6084F369
:102490001088002B29D01F2302A98C4663441B7887
:1024A000002BABD112021043A9E732003B00361BD0
:1024B000AF41BB4202D804D1B24202D901267642D2
:1024C000F717002FBBDA114B114A3F21114800F0DA
:1024D00033FE0E4B0E4A3F210E4800F02DFE0B4BF3
:1024E0000B4A3F210B4800F027FE012040420BB071
:1024F000F0BCBB46B246A946A046F0BD0798F6E739
:102500000CB8001034BB0010C0B7001014B9001094
:10251000DCBA001030B90010F8B504004268EFF3DF
:10252000108572B6136858424341D8B2002BF9D1D6
:10253000BFF35F8FCBB22268567BB3421BD1012021
:10254000002848D0206988422BD0090AC9B2002B44
:102550002ED02068007B83422AD8581EE668305C63
:1025600088422BD000206368BFF35F8F00221A607F
:1025700085F31088F8BD002B0DD0167BB3420AD826
:102580005E00F618033E1768BC466644B678002E17
:10259000D6D00120D4E7134B134A6821134800F02A
:1025A000CBFD8521124B134A4900134800F0C4FDAE
:1025B000124B134A4021104800F0BEFD19001000D4
:1025C00000F06AFC0028CED112210E4B094AFF31DF
:1025D000094800F0B1FD23698B42C4D10023236177
:1025E000C1E7C04640B800107CBB00105CB80010CA
:1025F00030BA0010C4BA0010C0B700100CB80010F8
:1026000034BB001054BA0010F0B585B007001000BC
:1026100019000C9E13000B4301D101200021B7606B
:102620000A9B3361306071600B9B7361CA171300A2
:102630005040040051400D00A41A9D4100F078F96B
:1026400002000B1E1ADB0100180012196B419842A0
:1026500002D804D1914202D901225242D317002B51
:1026600012DB0121029101960A4900913800FFF71F
:102670009BFEF060C043C00F05B0F0BD064B074A9B
:102680003F21074800F058FD034B044A3F2104480E
:1026900000F052FD991C001014B90010DCBA0010B3
:1026A00030B90010F0B587B006000F00FDF7DBFD74
:1026B00000281FD106246442E517A4197D41BD42BC
:1026C00002D803D1B44201D900240025002D14DB27
:1026D0000494059500F02CF902000B1E13DBA41ADC
:1026E0009D41002D17DC14D03000390000F02CF98A
:1026F00007B0F0BD234800F0B9FD234B234A3F212A
:10270000234800F019FD204B204A3F21204800F0CB
:1027100013FD002CE8D0FFF731FE00230293019354
:102720001C4B0093049A059BFFF73EFE002818DA25
:10273000DAE7002300E00023002BD5D1164B1A68FE
:10274000EFF3108172B61368002BFCD0BFF35F8FDC
:10275000114B1B68BFF35F8F00221A6081F3108852
:1027600020BF0499059A0D4B5B6A9A42E3D80B4847
:10277000806A884203D29A42DBD00123DCE701233E
:10278000DAE7C04658BA001014B90010DCBA0010DD
:1027900030B90010191D00103C35002000400540E4
:1027A000F8B504000D0000F0C3F802000B1E10DBAA
:1027B00020002900801859418B4202D804D182425E
:1027C00002D901204042C117002908DBFFF76AFF48
:1027D000F8BD064B064A3F21064800F0ADFC034B0E
:1027E000034A3F21034800F0A7FCC04614B900107B
:1027F000DCBA001030B9001010B5FA2292000023A4
:10280000002102F0F1FEFFF7CBFF10BD70B584B0E0
:1028100006000C00FFF7B2FD002302930193194B51
:10282000009332002300FFF7BFFD051E11DD20BF1E
:10283000FFF7A4FD2900FFF76FFE134B5B6A9C4274
:102840001BD8114A926AB2421AD29C4213D001207C
:1028500014E00D4B5B6A9C4209D80B4A926AB24263
:1028600007D29C4201D0012008E0002006E00020B1
:1028700004E0012002E0002000E0002004B070BD70
:102880000120FBE7191D00100040054070B5EFF373
:1028900005833F2018401038EFF3108C72B6194BA7
:1028A0001B68002BFBD0BFF35F8F01231900814011
:1028B000154A5163154A12781400C440234214D0BB
:1028C000114B5C6A8300124D5B599C4206D3830016
:1028D000104C1B598A430D490A7007E00A4A031D30
:1028E0009B0099589950002300E00023BFF35F8FAD
:1028F000044A002111608CF31088002B00D0984707
:1029000070BDC046280100D0004005409E45002013
:10291000603500205415002010B50100024A03481C
:10292000FEF7E6FD10BDC046A0BB00109845002094
:10293000044B5B6A034A906A1900536A9942F9D1C1
:102940007047C04600400540084B5B6A01E0074BFA
:102950005B6A8B42FBD301E0044B5B6A8B4203D181
:10296000024B9B6A8342F7D37047C0460040054044
:1029700070B504000D00FFF7DBFF02000B00200024
:102980002900801859418B4202D804D1824202D9D1
:1029900001204042C117002902DBFFF7D5FF70BDBF
:1029A000024B034A3F21034800F0C6FB14B9001054
:1029B00058BC001030B9001070B504000D00EFF3E2
:1029C000108672B61B4B1B68002BFBD0BFF35F8FCA
:1029D000002D1CD02000FEF789FE174B83420BD040
:1029E00019002000FEF79CFE01212000FEF76EFE7C
:1029F0000123A340114A1360A400114BE550BFF31B
:102A00005F8F0C4B00221A6086F3108870BDA20005
:102A10000B4B0021D1500122A2400A490B7893436D
:102A20000B7005492000FEF7BDFF00212000FEF7D6
:102A30004DFEE4E7280100D08D28001038600540E5
:102A4000541500209E450020F0B5DE4600B584B048
:102A50000400150001921E000293FFF769FF039521
:102A60008E4202D84ED185424CD9EFF3108B72B60C
:102A7000274B1B68002BFBD0BFF35F8F254A1778CD
:102A80000125A540EBB23B431370234B5D63221D30
:102A900092000199D150A2002049029850501B6A1F
:102AA0002B4212D11C4B1B6C2B4208D00020BFF3D1
:102AB0005F8F174B00221A608BF3108823E0184BAE
:102AC000184AC121184800F037FBFFF731FF8E424A
:102AD00014D802D1039B834210D80E4B1B78BB4203
:102AE0000ED00D4B1D625D631F2004400123A340E7
:102AF0000E4A1360074B1F701E38D8E70020D6E738
:102B00000120D4E7012004B080BCBB46F0BDC04624
:102B1000280100D09E45002000400540603500207F
:102B2000C4BB00103CBC0010E8BB001080E200E019
:102B3000EFF3108C72B60B4B1B68002BFBD0BFF36E
:102B40005F8F01238340084A136208490A789A4339
:102B50000A70BFF35F8F034B00221A608CF310885A
:102B60007047C046280100D0004005409E45002027
:102B700010B500291ED0037B99421BD84B005B186F
:102B8000033B0468A4466344002919D0002A1DD0E1
:102B9000914221D0002A25D0047BA24222D8046889
:102BA00050008018033820188170197800291FD12F
:102BB0001A7010BD104B114A6821114800F0BCFA80
:102BC000104B114A6F310E4800F0B6FA0F4B0E4A07
:102BD00070210B4800F0B0FA0D4B0B4A71210848E8
:102BE00000F0AAFA044B054A6821054800F0A4FA4F
:102BF00041701A70DDE7C04640B8001070BD00108B
:102C00005CB80010BCB800105CBD0010C8B8001063
:102C1000D4B8001070B506000D001400002914D0BF
:102C2000002A14D0806873689847002806D02200D4
:102C300029003000FFF79CFF280007E02A00210050
:102C40003000FFF795FF200000E0100070BD080085
:102C5000FCE7000010B50023437301338373037B4B
:102C6000C3730123027B9A4214D9002B0CD0027B40
:102C7000934209D85A00D218033A01688C4662443C
:102C80000133DBB25370EDE70B4B0C4A68210C4863
:102C900000F052FA002A09D0924207D80168530086
:102CA0009A18033A8A180023537010BD024B034A46
:102CB0006821034800F040FA40B8001070BD0010D1
:102CC0005CB8001010B5017342608360FFF7C2FF6B
:102CD00010BD000070B50400081E00D170BD0029B1
:102CE00034D0237B994231D84B005B18033B2268D8
:102CF000944663445A78002AF0D02DD0237B9A4220
:102D00002AD853009B18033B21688C4663445D78A6
:102D100000215970002825D0237B984222D84300F7
:102D20001B18033B21688C46634400215970010045
:102D30002000FFF76FFF060029002000FFF7CAFF01
:102D4000020031002000FFF765FFC7E7084B094A82
:102D50006821094800F0F0F9054B064A6821064849
:102D600000F0EAF9024B034A6821034800F0E4F955
:102D700040B8001070BD00105CB8001070B50500C0
:102D80000C001600002928D02DD0037B99422AD8A8
:102D90004B005B18033B0268944663445A78002A50
:102DA00027D19A78002A2AD11978FFF793FF0300D8
:102DB000002E03D0EA7B002A27D1EC73002B37D1F9
:102DC000002C49D02B7B9C4246D82B6861000C1903
:102DD000033C1C190023637070BD224B224A38212A
:102DE000224800F0A9F9224B224A6821224800F02B
:102DF000A3F9224B1C4A3A211C4800F09DF9204BB4
:102E0000194A3B21194800F097F9002A0AD0297B7A
:102E10008A4207D851008A18033A29688C466244CE
:102E20005470CAE7124B134A6821134800F084F922
:102E3000002B0BD02A7B934208D843001B18033B7E
:102E40002A689446634400229A70B9E7084B094AFD
:102E50006821094800F070F9054B064A68210648C8
:102E600000F06AF970BC001048BD001078BC00107A
:102E700040B8001070BD00105CB80010C4BC001059
:102E8000ECBC001070B504000A00457B2900FFF778
:102E900075FF6073280070BD70B50400002967D00D
:102EA000437B8B420ED0002911D0037B99420ED870
:102EB0004B005B18033B0268D0188378002B0CD1C1
:102EC000002056E00121FFF7DDFF012051E0294BF2
:102ED000294A6821294800F02FF9002B20D0227BB5
:102EE00093421DD85A00D318033B2268D218256894
:102EF000EB5C8B421AD0002B1BD0227B934218D85C
:102F00005A00D318033B2268D21853788B4216D04C
:102F1000002BF0D11A4B1B4A67211B4800F00CF91B
:102F2000144B154A6821154800F006F943781370D0
:102F300007E0104B104A6821104800F0FDF8437874
:102F4000537000238370437001222000FFF716FFA7
:102F50000200617B814205D02000FFF75BFE6073B9
:102F6000012006E0094B074A6D21074800F0E4F80C
:102F7000002070BD40B8001070BD00105CB800109B
:102F8000F0B6001030BD001078BC001010BD00106D
:102F900010B50400FEF708FB01002000FEF774FEE8
:102FA000FF232371BFF35F8F10BD10B50400FEF740
:102FB000FBFA01002000FEF767FEFF2323710023C8
:102FC0006371BFF35F8F10BD034B9C466144890062
:102FD0000160BFF35F8F70474000003410B50400FC
:102FE0000120FEF7EFFA01002000FFF7EDFF10BD12
:102FF00070B504000D00062000F052FAC000290050
:1030000001F0AEFCC60908D00E4B9E4217D87F23B4
:10301000184001303500460800E001256562A662CF
:103020002C3480208001044300232360062000F01C
:1030300037FA8000A901891901F092FC70BD0026C1
:10304000014DEBE7FEFF0000FFFF0000002909D063
:103050000A22064B9C466044434258414000044BC0
:10306000C252704780225200F3E7C0460080FCBF86
:103070007045002070B505000C00062000F010FA25
:10308000002829D0164B9D4227D08022D203154B11
:103090001A60154B1A60154B9B6811009943FAD1C1
:1030A00000212800FFF7D2FF21002800FFF7A0FF32
:1030B0002C002C34E96A60224A406E2111408022A3
:1030C0005201224311600A4B2B6380239B0123434F
:1030D00010221A600323AB6470BD80221204D6E76D
:1030E0000080034000E0004000F0004000C00040CD
:1030F0000103000000BEFDE703000A4A1268002A2F
:1031000008D0084A1068C318074A9A4206D3054AED
:1031100013607047034A05491160F2E701204042FD
:10312000F7E7C046102F002000000420A045002033
:1031300010B5FFF7DFFF000010B582B00C001900DA
:10314000002A0CD0084B002A0BD0019200932300D8
:103150000200064802F070FC0120FFF7CBFF044B91
:10316000F1E7034AF1E7C04658BE001068BE001000
:10317000D8AD001070B52B4B2B4A1A602B4B2C4A44
:103180001A602C4B9A682A4B9343FAD12A4C01E0DF
:1031900008CC9847294B9C42FAD300F001F9234B05
:1031A000274A1A60234B9B68DB43DB01FAD1254B8E
:1031B00040229A675A671A67DA66234C09E0234B64
:1031C000234A83212348FFF7B7FF2000FFF7E0FEE3
:1031D0000834214B9C4209D22368002BF5D0012BE7
:1031E000EDD12000FFF7E1FE0834F2E71B4CA168A7
:1031F0001B4DC022280002F0CDFAA560FDF733F880
:10320000002800D000BEFEF7BFF9FEF717FDFFF75C
:1032100099F8144C01E008CC9847134B9C42FAD320
:1032200070BDC04600E00040BFCDFBFE00F0004096
:10323000FE7F3C0000C00040600F0020700F0020A7
:10324000FFFFFF0100F00140580F002098BE001062
:103250001CBF0010B8BE0010600F002000ED00E0A1
:1032600000000020700F0020780F00200FB400B580
:1032700083B0084802F0AEFB049B002B07D005A9E1
:103280000191180002F0B6FB034802F0A3FB0120F5
:10329000FFF730FF0CBF001078AF0010F8B5DE4626
:1032A00057464E464546E0B505000F0092460A9A3D
:1032B00093424ED31A0E91461E020A9A0023300002
:1032C000494601F08FFB80466C006419A4002F4B27
:1032D0009C4664446368834200D260602B1FDBB26B
:1032E0009B46012B3BD9C0239B0123438022120123
:1032F0001A60AB00264A9958002905D0506901F0A0
:103300002FFB01300138FDD153465A0123685A4042
:10331000E0231A4080235B0123431A605A46012AA6
:1033200028D980239B012343802212011A6043463F
:103330006360424600233000494601F053FBAD0074
:10334000134B58510120F0BCBB46B246A946A046DB
:10335000F8BD104B104A2D211048FFF7EDFE012F4C
:10336000C1D1C0239B01234303221A60A368DB075A
:10337000FCD5C9E72168794003220A401A60A26897
:103380000123BB401342FAD0CBE7C0460080004087
:103390006C2600202CBF001098BF001040BF00100A
:1033A00030B583B00C2000F021F9FEF7E3F80028D7
:1033B0000DD0002304E099002D4A2E488850013397
:1033C000092BF8D92A4B2C4A5A6203B030BD2B4B3B
:1033D00000229A6700F088F9294B01221A60274BD6
:1033E0005B6C012BFBD1274B03221A60234B9B6B99
:1033F000012BFBD1013300930433234A01212348DD
:1034000000F054F805230093214A0121214800F0DF
:103410004DF8214B0093002202210420FFF73EFFCC
:103420001E4D00952B00002201210520FFF736FFDD
:10343000104C00942300002200210720FFF72EFFEC
:1034400000942300002200210820FFF727FF0A4BE9
:1034500000932300002200210920FFF71FFF0095A1
:103460002B00002200210620FFF718FFADE7C04621
:103470006C260020006CDC021BB7000000800040BE
:103480003CB0004030B00040002F6859008002403E
:10349000008C864700C00240001BB70040597307EC
:1034A0008000014BC05870476C260020F0B5C6461E
:1034B00000B504000F0090461D000C2001F050FAEA
:1034C00006003D4A42443D4B9A4243D843011B1AF1
:1034D0009901C91AC90009188901404601F040FA4A
:1034E0000200103A98235B009A4239D86B1E062BD3
:1034F0003CD8069B013B062B38D8069B9D423BD30C
:1035000043461A09B2423DD32D04069B1E033543A0
:103510002368002B3CDB2A4B9C424AD0802252017C
:10352000284B1A60284B1A60284B9B68110099435E
:10353000FAD12760A060231DC02292011A432123E3
:1035400013602368002BFCDAE5600823136080BC5D
:10355000B846F0BD1E4B1F4A11211F48FFF7ECFD76
:103560001E4B1C4A19211C48FFF7E6FD1C4B194A4B
:103570001C211948FFF7E0FD1A4B164A2221164874
:10358000FFF7DAFD184B134A25211348FFF7D4FD46
:1035900022683F231340BB42BDD1A3681B051B0D0E
:1035A0008342B8D1E368EE22D2021340AB42B2D1DB
:1035B000CDE780229201B3E780E84BD380F8A932AF
:1035C00000C0024000E0004000F0004000C00040A9
:1035D000A8BF0010F4C0001008C0001058C00010B0
:1035E00074C00010C0C00010D8C0001080239B0021
:1035F0000343014AD362704700800540024B1A68BA
:10360000024B5A607047C0461433002000800540CA
:1036100010B50200164B8020C0051860154B1648E7
:10362000186000290AD0154BE021C9041960002A4E
:1036300009D1124B802212061A6010BD0C4BE021FA
:10364000C9041960F3E753019B1A98008018000120
:103650000B4B186080235B04984202D3084B094A45
:103660001A60FFF7CBFF054B8022D2051A60E4E712
:1036700000B0054008200140FCFF010000A005400B
:1036800014330020FFFFFF0010B5034B034ADA613B
:10369000FFF7BEFF10BDC046008005402131B76A6C
:1036A00010B5030010000C4A8024E4051460002BC0
:1036B0000DD001221343094A094CD461094C5C40E6
:1036C0001462516293620021FFF7A2FF10BD034B09
:1036D0000022DA61F7E7C04600B0054000800540EF
:1036E000D3C007B02D3FF84F064BAA2212011A6033
:1036F0002F22DA60044B054A1A60024B5B68002BEC
:10370000FBDA7047004002400060024000B0FA005F
:103710009A4200D288547047704710B5002802D0F2
:103720000B684968984710BD0100002007E083003E
:103730001B185B00501C08601078C01830380A68ED
:103740001378303BDBB2092BF1D97047F0B5DE4678
:1037500057464E464546E0B583B093461F000C9B46
:103760009A460D9C0E9B99460F9B9B0703D0B8462B
:103770000F00060022E00192A34688464E46B94655
:103780000700B44207D2551C4B4641462020B8479B
:1037900001342A00F5E73D004F465C46019B9B46FD
:1037A000B1464646B84637002E0007E0013C551C9E
:1037B0005346185D43463900B0472A00002CF5D126
:1037C00035003E0047460F9B9B0707D4100003B00F
:1037D000F0BCBB46B246A946A046F0BDB0464E4638
:1037E000B9462F005D46531BB342EFD2541C4B46E3
:1037F00041462020B8472200F5E7F0B5CE464746BF
:1038000080B585B0944698460C9D0D9C0EAB1B78F8
:103810009946109A119B129EB7071CD4002B0CD00E
:10382000F7070AD54F46002F02D10C37374204D094
:10383000013B02E030272F550134944201D21F2C66
:10384000F8D9F70707D59C4205D21F2C03D830279B
:103850002F550134F5E7F70615D5770505D4002C6B
:1038600003D0944224D09C4222D00F9A102A2BD00D
:103870000F9A102A30D00F9A022A35D01F2C02D866
:1038800030222A5501341F2C05D84A46002A31D04F
:103890002D222A5501340396029301940095434644
:1038A0006246FFF753FF05B0C0BCB946B046F0BD55
:1038B000621E012C06D00F9F102F01D01400D4E7F8
:1038C000023CD2E71400D0E7B206D1D41F2CCFD8E7
:1038D00078222A550134D1E7B206CCD51F2CCAD89C
:1038E00058222A550134C9E71F2CC7D860322A55FF
:1038F0000134C3E7720703D52B222A550134CAE7E6
:103900003207C8D520222A550134C4E7F0B5DE4677
:1039100057464E464546E0B593B081468A460892E2
:1039200009931CAB10CB1B789B461E9D219B984690
:10393000002C03D1102342469A4390468023DB009B
:1039400046461E4042461A4212D0002C22D0002683
:103950000EE03033D9B2771C0AAB9955290020000C
:1039600000F0FEFFAC4216D31F2F14D83E00040017
:103970002900200000F0F4FFCBB2092BE9D9424620
:10398000920605D54121C918C9B20A39C9B2E2E780
:103990006121F8E7270043460693209B05931F9B70
:1039A000049303955B46029301970AAB0093099B2E
:1039B000089A51464846FFF720FF13B0F0BCBB46BB
:1039C000B246A946A046F0BDF0B5DE4657464E4683
:1039D0004546E0B595B0089009910A920B931E9E5A
:1039E0001F9C20AB1B789B46229B9946239D269BC0
:1039F0009A463300234303D1103352469A439246EA
:103A00008023DB0057461F4052461A4219D033002C
:103A100023432DD0002714E03033DAB27B1C9846C4
:103A20000CABDA554A462B003000210000F0DAFFDB
:103A3000A5421FD819D043461F2B1BD84746060066
:103A40000C004A462B003000210000F0CBFFD3B21F
:103A5000092BE1D95246920605D54122D218D2B29D
:103A60000A3AD2B2DAE76122F8E7B145E3D901E0D8
:103A70000023984653460693259B0593249B049365
:103A80004B4603935B460293434601930CAB009372
:103A90000B9B0A9A09990898FFF7AFFE15B0F0BC86
:103AA000BB46B246A946A046F0BD0000F0B5DE46D2
:103AB00057464E464546E0B591B083468A460C923D
:103AC00098461A9C08941B9D099522002B00200003
:103AD000290001F016FA002800D0E5E00122524248
:103AE000D74B2000290001F007FA002800D0DBE0C6
:103AF00001225242D34B2000290001F0E7F90028AF
:103B000000D0D1E000220023089E3000099D29004A
:103B100001F0DCF9002800D0DDE008980999069052
:103B200007918023DB001E9A1A400D921E9A1A42BA
:103B300001D106231C930698079904000D000A0082
:103B40000600024300D1D1E0080D4005400DBE4CF7
:103B5000A44660440A03120BBC4B13431F0001F040
:103B6000E3F9BB4ABB4B01F06EF9BB4ABB4B01F01A
:103B700043F904000D000022B94B3000390001F078
:103B800032F9B84AB84B01F05EF902000B00200090
:103B9000290001F031F901F0DFF9814601F0C4F9A3
:103BA00004000D00B14AB24B01F04DF90022B14BB7
:103BB00001F022F901F0D0F90600AF4AAF4B200026
:103BC000290001F040F904000D00300001F0ACF9CB
:103BD000AB4AAC4B01F037F902000B002000290082
:103BE00001F001F904000D0002000B0001F02BF9B7
:103BF0000A900B91A44BF31800261F0522002B00FE
:103C00002000290001F0F8F80E900F9122002B00FF
:103C100000208021C90501F0E6F804000D00002213
:103C20009A4B0A980B9901F0F0F80022984B01F09A
:103C3000E3F802000B000A980B9901F0E6F8002265
:103C4000944B01F0D9F802000B000A980B9901F08F
:103C5000DCF802000B002000290001F0CDF8020082
:103C60000B000E980F9901F0D0F80022774B01F06D
:103C7000C3F832003B0001F0E6F806000F00040034
:103C80000D00069A079B01F037F9002830D0012378
:103C90005B429C46E14400227D4B3000390001F03C
:103CA000B4F804000D0023E01E9B04931D9B0393B6
:103CB0001C9B0293089A099B0092019343460C9A1D
:103CC0005146584600F0FCF811B0F0BCBB46B24675
:103CD000A946A046F0BD002300240693079406964B
:103CE00080231B069C46654407951AE700239946E6
:103CF0004B466333C62B1ED804261E9B1B0526D5B8
:103D00002B0023430FD0644A644B0698079901F0B7
:103D1000EBF8002879D00022614B0698079901F052
:103D2000D5F8002871D01C9B4B4506DD4A46981AF1
:103D3000431E1C9303E00526DFE700231C9380232A
:103D4000DB001E9A1A431E920026002399461D9BF3
:103D50009E4264D29F1B02231E9A1A400A921E9A08
:103D6000134202D0002E00D000274B46002B07D074
:103D700022002B000698079901F047F8069007915A
:103D8000002200230898099901F0A0F8002848D1E2
:103D9000444B1E9A1340049303971C9B0293069B6B
:103DA000079C0093019443460C9A5146584600F0F4
:103DB00087F8002E00D187E71E9B9B063DD5452541
:103DC000441C4346020051462800D8474B46DA17A8
:103DD0009B18534005220592013E0496002203924F
:103DE0000A3202924A46D00F0190009343462200C5
:103DF00051465846FFF78AFD0A9B002B00D163E726
:103E000002005F460C9E1D9D54E01C9B002B9ED023
:103E10000D9B002B9BD01C9B013B1C9397E700271D
:103E200099E7069C079D2200290080200006844611
:103E300061440B0006920793AAE76525C0E7C046D8
:103E4000FFFFEF7FFFFFEFFF01FCFFFF0000F03FF0
:103E5000FB799F501344D33FB3C8608B288AC63F79
:103E60000000F83F61436F63A787D23F71A37909D0
:103E70004F930A400000E03F1655B5BBB16B0240BE
:103E8000EF39FAFE422EE63FFF03000000002C400F
:103E900000002440000018402D431CEBE2361A3F7E
:103EA00080842E41FFF7FFFF541C434651462020DB
:103EB000B8472200931BAB42F6D3100004E7C0467C
:103EC000F0B5DE4657464E464546E0B595B00690FD
:103ED000079193469946209F1E9A1F9B1000190038
:103EE00001F00FF8002831D101225242BF4B1E9839
:103EF0001F9900F0EBFF002837D101225242BC4B42
:103F00001E981F9900F0F8FF00283DD10022B94B00
:103F10001E981F9900F0F0FF002850D10022B64BE8
:103F20001E981F9900F0D2FF002848D100220023DC
:103F30001E981F9900F0CAFF002850D10023984610
:103F4000229B5B0500D4B6E0002458E0229B03933B
:103F5000219B029303230193A84B00934B465A469F
:103F600007990698FFF7F2FB0EE1229B0393219B32
:103F7000029304230193A24B00934B465A460799A0
:103F80000698FFF7E3FBFFE00423229A1A402299E8
:103F90000B4210D09B4B002A0FD004222299039190
:103FA00021990291019200934B465A46079906982F
:103FB000FFF7CCFBE8E0944BEDE70322EEE7229B12
:103FC0000493219B039302971E9B1F9C00930194D3
:103FD0004B465A4607990698FFF768FDD4E01E9AAB
:103FE0001F9B0020002100F0FEFE1E901F91012368
:103FF0009846A5E70CAB30221A55013F01341F2C1F
:1040000001D8092FF6D81E981F9900F0A5FF0500CA
:1040100000F08AFF02000B001E981F9900F0E3FEDB
:10402000FA007A4B9B181A685B680A920B9300F0AF
:104030000AFF0890099100F0B3FF060000F070FF3E
:1040400002000B000898099900F0CDFE0890099134
:1040500000226F4B00F050FF00282ED001363000B8
:1040600000F05EFF02000B000A980B9900F034FF8D
:10407000002801D001350026002F2CD1280000F0A7
:1040800053FF02000B001E981F9900F0ACFE0600C3
:104090000F0000225E4B00F019FF002846D10022DD
:1040A0005B4B3000390000F027FF00283ED1EB07C2
:1040B0003CD501353AE0062746E70022544B0898E4
:1040C000099900F003FF0028D6D1002E01D0F30794
:1040D000D2D50136D0E7AA461F2C11D8013F0A21BC
:1040E000300000F03DFC651C30310CAB19550A2145
:1040F000300000F035FC092E0ED906002C00EBE74D
:1041000055461F2C0CD87B1E002F09D00CAA30213D
:1041100011551F000134F4E72B0055461C00F0E751
:104120001F2C03D80CAB2E221A5501341F2C10D88B
:104130000A21280000F0ECFB661C30310CAB19554D
:104140000A21280000F0E4FB051E01D03400EDE751
:1041500034000323229A1340012B1CD01F2C06D8B5
:104160004346002B32D00CAB2D221A550134229B32
:104170000393219B029301940CAB00934B465A4648
:1041800007990698FFF7E2FA15B0F0BCBB46B246B5
:10419000A946A046F0BD219B002B13D04346002B1F
:1041A00002D10C3313420FD0219B013B2193190004
:1041B00003E00CAB30221A5501348C42CED21F2CB6
:1041C000F7D9CBE72199F8E72199F6E7229B5B071E
:1041D00004D50CAB2B221A550134C8E7229B1B07D0
:1041E000C5D50CAB20221A550134C0E7FFFFEFFF05
:1041F000FFFFEF7F65CDCD4165CDCDC10CC1001076
:1042000010C1001004C1001000C10010F8C200105D
:104210000000E03FF0B5DE4657464E464546E0B565
:1042200093B082468B4690461193002900D1EBE271
:1042300000275546119B1878002800D1E7E2252871
:1042400009D07C1C43463A005946A847119B0133CC
:1042500011932700EEE7013311930024119A11788E
:104260000B00203BD8B2102803D88300D048C35895
:104270009F460B00303BDBB2092B2CD92A292FD0CB
:1042800000230A93119B1A782E2A39D000239A46CC
:10429000119A1378683BD9B2122976D88B00C54998
:1042A000CB589F4601231C4301321192D6E70223CB
:1042B0001C4301321192D1E704231C4301321192B5
:1042C000CCE708231C4301321192C7E710231C439B
:1042D00001321192C2E711A8FFF726FA0A90D1E73E
:1042E0001C9B1A1D1C921868002804DB0A90119B65
:1042F00001331193C6E702231C4343420A93F6E7B6
:104300008022D20014435A1C11925A781300303B79
:10431000DBB2092B04D92A2A07D000239A46B7E733
:1043200011A8FFF701FA8246B2E71C9B1A1D1C92E6
:104330001868002804DB8246119B01331193A7E71C
:104340000020F8E780235B002343511C1191527831
:104350006C2A01D01C0018E0C0239B001C430131D3
:10436000119112E080232343511C11915278682A45
:1043700001D01C0009E0C0231C430131119104E06D
:1043800080235B001C4301321192119B18780300BB
:10439000253BDAB2532A00D92CE29300864AD3583F
:1043A0009F4680239B001C4301321192EDE780233E
:1043B0005B001C4301321192E7E7782809D05828A6
:1043C00038D06F2838D0622838D010239C430A2672
:1043D00000E01026582833D0692803D0642801D083
:1043E0000C229443630501D50122944369282AD005
:1043F000642828D0A30500D59FE0E30500D5B8E0E8
:10440000630600D4CAE01C9A111D1C911168FF229A
:104410000A4005940A9B0493534603930296002393
:104420000193009243463A0059462800FFF76EFA7E
:10443000070027E01026CDE70826CBE70226C9E7CC
:1044400020221443C8E7A30520D4E30550D4630613
:1044500066D51C9A111D1C911168FF220A40D317C2
:10446000D118594005940A9B04935346039302962E
:10447000D20F0192009143463A0059462800FFF7B7
:1044800045FA0700119B01331193D3E61C9BDA1DFB
:1044900007218A43110008311C91116853689C461A
:1044A000DB170C930D930C9A0D9B100048400E9057
:1044B000624653400F930E980F990C9A0D9B801AE9
:1044C00099410E900F9108940A9B079353460693C7
:1044D0000496002305936346DA0F0292009001913F
:1044E00043463A0059462800FFF76EFA0700C9E72D
:1044F0001C9A111D1C911268D317D11859400594AC
:104500000A9B0493534603930296D20F01920091A3
:1045100043463A0059462800FFF7F8F90700B1E78B
:10452000230605D51C9A111D1C910023D25E96E727
:104530001C9A111D1C91126891E71C9BDA1D072122
:104540008A43110008311C9108940A9B0793534633
:10455000069304960023059302931368546800930E
:10456000019443463A0059462800FFF72DFA070008
:1045700088E71C9A111D1C9105940A9B04935346CD
:1045800003930296002301931368009343463A0075
:1045900059462800FFF7BAF9070073E723060DD53F
:1045A0001C9A111D1C9112681204120C31E7C046AE
:1045B00018C100105CC10010A8C100101C9A111D88
:1045C0001C91126825E746281AD01C9B0733072246
:1045D00093431A0008321C9204940A9A039252469A
:1045E00002925C681B680093019443463A00594666
:1045F0002800FFF765FC0700119B0133119319E6B2
:1046000020231C43E1E7672801D0472802D18023FB
:104610001B011C43452801D0472801D120231C43FE
:104620001C9B0733072293431A0008321C92049400
:104630000A9A0392524602925C681B6800930194A6
:1046400043463A0059462800FFF730FA0700119B0D
:1046500001331193EEE502231A00224092462342D1
:104660001FD001241C9B1A1D1C927A1C914618789D
:1046700043463A005946A8475346002B16D1119B92
:10468000013311934F46D5E5561C43465946202029
:10469000B847230032005C1C9D42F5D83D0017004E
:1046A000E0E701233A002F000A9DF4E74A46A946B5
:1046B0000A9D06E0571C434659462020C84734004F
:1046C0003A00661CA542F5D84D469146D7E71C9B9B
:1046D0001A1D1C921B6899465346002B00D1013BC2
:1046E0004E4601E0013613003278002A02D05A1EED
:1046F000002BF7D14B46F21A10928023DB002600E4
:104700001E401C4203D0524501D953461093022348
:104710001A0022400B92234205D03A0037004C4643
:10472000A946554620E03A00109B5F46B3462E004E
:1047300006E0551C434639002020B04723002A00DC
:104740005C1C0A999942F4D835005E46BB46109429
:1047500037004C46A946554606E01D000134561C5C
:1047600043465946C84732002078002804D0002F1D
:10477000F4D06B1E002DF0D117004D460B9B002B83
:1047800003D1119B0133119354E50A9F109B06E05E
:10479000561C434659462020A847230032005C1C83
:1047A0009F42F5D81700ECE721231C431C9B1A1DE0
:1047B0001C921B68009305940823049353460393AB
:1047C000102302930023019343463A0059462800E0
:1047D000FFF79CF80700119B013311932AE57C1C1D
:1047E00043463A0059462520A847119B01331193AF
:1047F00027001FE57C1C43463A005946A847119BF9
:1048000001331193270015E50A4B9A4610E5AA4695
:10481000474502D343465A1E00E03A0043465946F4
:104820000020D047380013B0F0BCBB46B246A946C2
:10483000A046F0BD193700100EB410B585B00100C8
:1048400007AC08CC03940122009452420348FFF7BE
:10485000E1FC05B010BC08BC03B0184711370010CC
:104860000CB410B584B00A0006AC08CC03940094D4
:1048700001000448FFF7CEFC04B010BC08BC02B035
:104880001847C0461137001000B585B0029003915B
:104890000121009313004A4202A90248FFF7BAFC23
:1048A00005B000BD1B37001001480421014B18471B
:1048B00090060020D948001010B5010018231B886D
:1048C00014221088984710BD10B5010018231B88CA
:1048D00016221088984710BDF0B5C64600B50700EF
:1048E0000E0000250123984600E00135B5420AD2AA
:1048F000AC003C192068FFF7DFFF20600028F4D1EE
:1049000000239846F1E7404680BCB846F0BD000061
:10491000124A936F9B0815D29066D166002905D084
:10492000FFE7FFE7FFE7516F106F704704B5802185
:104930000906C2175140002800D0C84306F07CF891
:10494000002104BDF0B5146E556E576F166FFFF75A
:10495000E3FF1466556657671667F0BD000000D088
:10496000114A936F9B0813D210665166002905D037
:10497000FFE7FFE7FFE7516F106F704704B50028AE
:1049800001D00020C04306F057F8002104BDC04606
:10499000F0B5146E556E576F166FFFF7E5FF14668E
:1049A000556657671667F0BD000000D094464E4A22
:1049B000926F9208624601D230E0C046F0B54A4E8E
:1049C000B56F6D08FCD3346E756E776F366F00F07F
:1049D00025F89446444A146655665767166762463A
:1049E000F0BDC0469446404A926F9208624601D29A
:1049F00058E0C046F0B53C4EB56F6D08FCD3346E40
:104A0000756E776F366F00F04DF89446364A14662F
:104A10005566576716676246F0BDC046002B24DB1B
:104A200011D000293EDA00B5C943404200D101311E
:104A300000F038F8C943404200D10131DB43524213
:104A400000D1013300BD002AEBD1002801D100299B
:104A500005D00020C90FC90701D1C043410800B5E6
:104A600005F0DAFF0022002300BD00B500290ADBB3
:104A7000DB43524200D1013300F014F8C9434042F5
:104A800000D1013100BDC943404200D10131DB43B7
:104A9000524200D1013300F005F8DB43524200D10D
:104AA000013300BD002923D1002B18D1002A0CD0DE
:104AB000BC460D4F38667A6600210023FFE7FFE70A
:104AC000FFE77A6F386F67467047002801D00748C4
:104AD000010000B505F0A0FF0022002300BD020088
:104AE0000B00002000217047000000D0FFFFFFFFF7
:104AF000002B00D0BFE0130C28D1002AE7D080B4EF
:104B0000114F39667A66FFE7FFE730B4040C7B6F1C
:104B1000396F1B0423433B667A66FFE7FFE7FFE735
:104B2000C04684B27B6F3D6F1B0423433B667A66AD
:104B3000FFE7FFE7C04600232C042D0C7A6F386F87
:104B400000196941B0BC7047000000D0F0B5944630
:104B50000025140E01D112020835140F01D11201E3
:104B60000435940F01D192000235D40F01D15200C7
:104B70000135D40B0134254F7C66254C3C660E0C68
:104B800093B2FFE7FFE7FFE73C6F6643360C77031E
:104B9000BE467343DF0B5B04C01AB941130C734369
:104BA000DB18C91ACE086643360CB64493B2734379
:104BB0001F0F1B01C01AB941130C73431F0B1B05B8
:104BC000C01AB941860D8F023E436643360C092D4B
:104BD00024DB520A7243801A7703460A6643360C76
:104BE00016235B1BDE40DF40BF1964466643821B11
:104BF0007046043506330100D940A840C01900D3DF
:104C00000131A24206D20023F0BD0000000000D016
:104C1000FFFFFFFF121B0130F3D3F1E709277F1BD2
:104C2000FE406446A2B27243801A00D20139220CBF
:104C30007243130C1204821A99410B00704604351A
:104C400013370100F940A840801900D30131002B2F
:104C500002D1A2420AD2F0BD013000D30131121BB1
:104C6000FAD2013BF8D1A24200D2F0BD013000D30C
:104C70000131121BF7E7F0B51C0C00D080E00CB43A
:104C800000251C0A04D11B02160E334312020835FC
:104C90001C0B04D11B01160F3343120104359C0B6E
:104CA00004D19B00960F334392000235DC0B02D1F6
:104CB00092185B4101351C00971864410134464F3E
:104CC0007C66464C3C660E0CFFE7FFE7FFE7C046FC
:104CD0003C6F6643360C7703BE4697B27743C01BE2
:104CE00000D20139C01B00D201399FB27743C91BE2
:104CF000C91B170C77437E04FF0B801BB941CE08FC
:104D00006643360C0C2D33DBB644120B1F053A43B9
:104D10001B0B97B27743C01B00D201399FB2774378
:104D2000C91B170C77433E043F0C801BB941860D0D
:104D30008F023E43664329277F1BFE400C3D77468A
:104D4000AF40BF1930BCA2B2ABB272437343801AFA
:104D50009941220C7243130C1204801A99410200EB
:104D60000B000137001BA941F9D2781E0021F0BDCC
:104D70000C277F1BFE4077467F0BAF40FF19E0E713
:104D800000245D1C07D0144F7D663966FFE7FFE7FE
:104D9000FFE7FFE73C6F95B29EB265436643401B59
:104DA000B141150C1E0C6543664336042F0C3E437F
:104DB0002D04401BB141994204D202000B00200097
:104DC0000021F0BD01D19042F7D3801A99410134FE
:104DD0009942F2D3F6E70000000000D0FFFFFFFF8A
:104DE00048404140484018B41B4B5B68FC46019367
:104DF00008BD04DFBB50001018B4174B1B68FC46FD
:104E0000019308BD00DFC55000109446134A926F0D
:104E1000920809D2624618B40F4BDB68FC46019336
:104E200008BD0CDF7D5300100C4AF0B5146E556EB2
:104E3000576F166F6246FFF7EEFF084A1466556615
:104E400057671667F0BD18B4034B9B68FC46019387
:104E500008BD08DF2152001038330020000000D0C8
:104E6000FFB550404240504059404B40594000E04F
:104E7000FFB5154F4C00640D03D0BC4204D10C03A8
:104E800014D80020090D09055C00640D03D0BC4254
:104E900004D11C030AD800221B0D1B0501264B4020
:104EA00009D44B4003D58B4200D18242FFBD9942C9
:104EB000FCD19042FFBD0B43DB1803431343F5D0F5
:104EC000C9434918FFBD0000FF07000000B5FFF708
:104ED000CFFF804100BDC04600B5FFF7C9FF01D933
:104EE000002000BD012000BD00B5FFF7B9FF01D9CA
:104EF000002000BD012000BD00B5FFF7B1FF8041DB
:104F000000BD012040054A00121804D85A001218AA
:104F100001D8002070470120704700207047000032
:104F20000021002805D17047C1174840401AFAD027
:104F3000C90713B5064B1B6898470CBC441CA2401C
:104F40001005120B0349091B09051943114310BD34
:104F5000383400201F04000010B54C00620D80237F
:104F6000D218DB00D21A5B057E2A10DD9E3A13DAD6
:104F7000CC170903490819435242D1406400013457
:104F80001532202A05DAD0400843604310BD0020C6
:104F900010BD0846604310BDC80FC018013810BDD1
:104FA00018B4044B5B6AFC46019308BD24DF2D5501
:104FB000001000003833002070B513231C78012C3A
:104FC00014D0012C14DC022C02DC1F4A1F4B9A6403
:104FD0001F48FFF771FC1F4B186070BD99001A48FD
:104FE0001A4A885001331F2BF8D9EAE70023FAE761
:104FF0001948FFF769FC05001848FFF765FC0238FF
:1050000003789B007F2B19DD802229000F4800F0D8
:10501000C1FB022CD7D1124B1A88B5231B029A422E
:1050200009D1104B1A88104B9A4204D10F4B1A88A1
:105030000F4B9A42C7D00020FEF718F90D4B0E4ACD
:1050400032210E48FEF778F88150001038330020E6
:105050004C33000038340020534400005346000015
:1050600054380000D8380000494600009C38000041
:105070005946000048C3001004C40010A8C3001023
:1050800007B56046002800D100BE01880A0A023038
:10509000DF2AFAD1C9B2820804D30288408800040A
:1050A000104300E00068024A5050039007BD000022
:1050B000383300200FB403BC0CBCF0B50124E40766
:1050C000634000E0F0B50C0DCF0F661E3605891B5E
:1050D000640503D3C943404200D30131640D03D0BA
:1050E000661CF60A07D0E41B00207F00791C8907A4
:1050F0008912803C24031D0DDF0F6E1E36059B1B9D
:105100006D0503D3DB43524200D301336D0D03D051
:105110006E1CF60A07D0ED1B00227F007B1C9B074C
:105120009B12803D2D032F1B661B58D4A446202EB6
:1051300046DA20371400BC401D00BD40F240334128
:105140002A4380185941CB0F05D0C943C0430022E0
:1051500064425041514162464D0D28D10D0D07D199
:1051600000281FD0241940414941013A0D0DF9D0C2
:10517000640006D3013000D30131002C01D1400876
:105180004000013A0BD4941CE40A04D112051144E6
:10519000DB071944F0BDD907204B194300E0D907BC
:1051A0000020F0BD0029DDD1002CDBD1F0BD0132A3
:1051B000C6074008CD0728434908002EE1D0D9E7AB
:1051C0003C2E29DA203E40371400BC4000D0012498
:1051D000F24014431A00BB401C43D317ACE7AC4663
:1051E000202F08DA20360400B4400D00B540F84006
:1051F00039412843A5E73C2F0CDA203F4036040014
:10520000B44000D00124F84004430800B1400C43EE
:10521000C117EAE710001900002494E70000F07FAE
:10522000F0B50C0D661E3605891BE60A6405640D93
:1052300002D0651CED0A04D0002001210905803C44
:105240002403A4461C0D671E3F05DB1BE70A64050B
:10525000640D02D0651CED0A04D0002201231B0559
:10526000803C24037740644497B484B296B274437C
:10527000070C7E43150C6F4380B26843361802D387
:10528000012000043F183004350C00197D4184468C
:1052900088B29AB250430C0C62431F0C7C438EB20E
:1052A0007E43921902D301263604A4191604170C62
:1052B0003618674101BC81B29AB25143040C624373
:1052C0001B0C5C4380B25843121802D30120000427
:1052D00024181004130C401863412D185E4100205F
:1052E000474106BC88B293B258430C0C6343120C7E
:1052F000544389B251435B1802D301210904641855
:1053000019041A0C091862416D18564100204741D2
:1053100018BCF902720D1143F0026A0D1043ED0240
:105320000A0D03D16D1940414941013B124E9B1BAF
:105330007600B3420ED26D0007D3013000267141D2
:105340006646354301D1400840001B05C918E407F3
:105350002144F0BD0BDA013306D1013004D1013113
:105360004F0D01D04908F2E7E1070020F0BD0136FA
:1053700031050020EBE70000FF030000F0B51C0D35
:10538000671E3F05DB1BE70A6405640D02D0661C3F
:10539000F60A04D0002201231B05803C2403D025FB
:1053A0002D060026F6432E661E096E66CE0FF619F0
:1053B000B44649004F0D02D07E1CF60A03D00020EF
:1053C0000021403F3F033E1BB600B444013F7F0530
:1053D000C91B49082E6F013676089C02950D25439E
:1053E0007543ED137543AD1301356D10F603761B50
:1053F0000CB4CC02450D2C43A2B2B3B25A43270CD5
:105400007B43350C6F43A4B26C431B1902D30124B8
:1054100024043F191C041D0CA4187D4124196D415E
:10542000009A91B2ACB26143170C7C432B0C5F43E2
:1054300092B25A43A41802D301221204BF182204C4
:10544000230C52187B41019C6C431B19520ED9014D
:105450000A434401A01A81B2B2B2514303145A4321
:10546000360C734387B27743D617D21900277E4193
:1054700036049B191704160C7F185E417316ED183D
:10548000F301002680337541A90F06D16400690A33
:10549000E8055B0A184309D22FE0042294448033C4
:1054A0007541A90AA8059B0A184326D340414941E2
:1054B0002404009A019B0D005543641B4343E41AE6
:1054C00095B286B27543170C7E43030C5F4392B2CC
:1054D0005A43B61802D301221204BF183204330C07
:1054E00052197B4152429C41002C02D400220130CF
:1054F00051414008CA071043490802B06246D70725
:105500009210084BD218084B9A4203D21205891800
:10551000C919F0BD0020002A01DC3900F0BD0133BB
:105520001905F5E7FD030000FE070000002200B5A5
:10553000203200F004F8080000BD000000220B1526
:105540000AD410B5944600F031F81414013400DA8E
:105550000021CB17144C20470020002170476244E3
:10556000343A0CD40C2A07DA04009140904052429D
:105570002032D440214310BDD843D94310BD20323E
:1055800007D40C469440524220321141D04020436F
:1055900010BD0800C917203203D4524220321041F6
:1055A00010BD1800190010BD5F5500100A0DCC0F7A
:1055B000531E1B05C91A520503D3C943404200D3E9
:1055C0000131520D03D0531CDB0A07D0121B0020FF
:1055D0006400611C89078912803A1203014BD21AB8
:1055E00070470000FF03000051434343C9188C4635
:1055F000110C83B24B4310B4040C614392B280B2DD
:10560000504362431C041B0C001910BC5941130485
:10561000120CC018514161447047000070B513234B
:105620001D782A48FFF750F90400012D11D0012DF3
:1056300009DDA31E1B789B007F2B40DD802221000B
:10564000234800F0A7F82348FFF736F9224B1860EB
:1056500070BD542201001E4800F09CF81F4B1A88B0
:105660001F4B9A421CD1A7239B011A881D4B9A42BB
:1056700016D11D4B1A881D4B9A4211D11C4B1A880A
:1056800094239B019A420BD11A4B1A881A4B9A42C7
:1056900006D11A4B1A681A4B9A4201D1152307E01A
:1056A0001848FDF7E3FD99001748094A885001336F
:1056B0001F2BF8D9144A064B1A62DA61B7E7134B6D
:1056C000134A42211348FDF737FDC04653460000F8
:1056D0003C3400204C33000038340020EE29000018
:1056E000C40F0000C20D0000962B0000C0B50000E2
:1056F000182B0000CC2A000010B50000FC2C000084
:1057000051ED8764D8AD00101957001018C400106F
:10571000A8C400104CC4001007B56046002800D192
:1057200000BE01880A0A0230DF2AFAD1C9B2820813
:1057300004D3028840880004104300E00068024A55
:105740005050039007BD00003C34002010B5040009
:1057500004F0E4FC002804D00419034B9C4200D858
:1057600010BD0248FDF782FD00000420BCC40010FB
:1057700010B504F0DDFC10BD01480421014B1847B1
:10578000A0060020D9480010014B1B6818470000F4
:10579000A0060020014B5B6818470000A00600200F
:1057A00010B50300080011001B68984710BD0000E9
:1057B000F8B507000D001600437C002B02D0002432
:1057C00000200CE003681100280098472DE03B7C86
:1057D00010E0022115483B689847601C0134B44230
:1057E00014DA002CF3DD2B19013B1B780D3B5A42D8
:1057F0005341DBB22A5D0A2AF0D1002BEED1A04240
:10580000E7DA211A28183B689847E2E7B04203DA42
:10581000311A28183B689847002E06DDAD19013D66
:105820002B780D3B5A4253413B74F8BD34C50010F0
:1058300070B505000368002B16D00C4B1C6805E002
:10584000290004C92000FFF7B3FFE468002C09D049
:105850002368002BF9D0064B1B68002BF0D0A34225
:10586000F3D1EDE700232B6070BDC046FC2600207D
:105870000427002070B505000C000B68802B05D0B4
:1058800021684B1C23606418257170BD0800FFF768
:10589000CFFFF5E710B582B0D0231B0600241C57BC
:1058A00001A9074805F0D0F8002806D1019B9C42C9
:1058B00003D0034805F0E8F8012002B010BDC0464F
:1058C000580F002010B5024805F09EF810BDC046E4
:1058D000580F0020F0B5CE46474680B583B006008D
:1058E0000D0090461C00FFF7D5FF81466B1C05D0CC
:1058F000002C08D0194F1A4B1C6807E0300004F048
:105900000DFF0500F4E7174FF5E7E468002C17D00A
:105910002368002BF9D0144B1B68002B01D0A34245
:10592000F3D12A0031002000B8474346002BECD0C9
:105930006B46D91D0A230B7001222000B847E4E70B
:105940004B46002B07D16B1E9D41E8B203B0C0BC93
:10595000B946B046F0BDFFF7B5FFF4E7A157001018
:10596000FC260020B15700100427002010B582B09B
:1059700004006B46D81D0470002300220121FFF7AC
:10598000A9FF200002B010BD094A01E00C331A0043
:105990001368002B08D08342F8D1002907D1C368CF
:1059A00013600023C36002E0002900D0106070473C
:1059B000FC26002010B5064B1C6801E09847E468FF
:1059C000002C03D06368002BF8D1F8E710BDC04667
:1059D000FC26002070B5050004F0A0FE04000023A2
:1059E000012201002800FFF775FFFFF7E3FF200009
:1059F00070BD000070B5A2B004000E00FFF74AFFB2
:105A000005008422002101A8FFF7BEFE330022001A
:105A100001A90848FEF738FF040001A8FFF708FFB6
:105A2000FFF7C8FF002D02D1200022B070BDFFF7A4
:105A300049FFF9E7755800100FB400B583B004A909
:105A400001C90191FFF7D6FF03B008BC04B01847A5
:105A500010B500F053F910BD70470000014B002253
:105A60001A7070479A4500204B79FF2B0CD18B7927
:105A7000002B0BD1CB79012B0AD1082A0AD98A78BD
:105A8000054B1A70092000E0002070470020FCE759
:105A90000020FAE70020F8E79A450020012070472F
:105AA00070B504000D000348FEF706FF030029004F
:105AB000200098475542000010B5002926D11179E1
:105AC00053791B020B43124909788B4201D0002005
:105AD00010BD5378012B03D0022B10D00020F7E724
