:020000041000EA
:1000000000B5324B212058609868022188439860DF
:10001000D860186158612E4B002199600221596106
:100020000121F02299502B49196001219960352056
:1000300000F044F80222904214D00621196600F024
:1000400034F8196E01211966002018661A6600F04E
:100050002CF8196E196E196E052000F02FF8012189
:100060000842F9D1002199601B49196000215960AB
:100070001A491B48016001219960EB211966A021F2
:10008000196600F012F800219960164914480160C1
:100090000121996001BC002800D000471248134993
:1000A000086003C880F30888084703B5996A0420EC
:1000B0000142FBD001200142F8D103BD02B5186610
:1000C0001866FFF7F2FF186E186E02BD00000240BE
:1000D000000000180000070000035F00212200005C
:1000E000F4000018222000A00001001008ED00E03C
:1000F00000000000000000000000000074B24E7A12
:1001000000200420F7010010C3010010C5010010F9
:10011000C1010010C1010010C1010010C101001097
:10012000C1010010C1010010C1010010C701001081
:10013000C1010010C1010010C9010010CB01001065
:10014000CD010010CD010010CD010010CD01001037
:10015000CD010010CD010010CD010010CD01001027
:10016000CD010010CD010010CD010010CD01001017
:10017000CD010010CD010010CD010010CD01001007
:10018000CD010010CD010010CD010010CD010010F7
:10019000CD010010CD010010CD010010CD010010E7
:1001A000CD010010CD010010CD010010CD010010D7
:1001B000CD010010CD010010CD010010CD010010C7
:1001C00000BE00BE00BE00BE00BE00BE00F04BF888
:1001D000103800BEF2EB887144EB001070EB001099
:1001E0003402001090A31AE700202149086006C8D5
:1001F00081F3088810471F48006800282FD10DA4FC
:100200000ECC002902D000F012F8F9E71A491B4A77
:10021000002000E001C19142FCD1194988471949E9
:1002200088471949884700BEFDE701C901C29A42C3
:10023000FBD3704770EB0010C0000020900F00202F
:1002400040FA0010000004200000042040FA0010D2
:1002500000100420001004200000000070470B482C
:1002600004F02EFC0047EFF30580C0B27047000099
:1002700008ED00E0000000D0900F0020BC450020F9
:100280007D330010A91200103933001057560000BA
:1002900006005250ABB360530CDE00100600525003
:1002A000861C03021CDE0010060052505422A29D40
:1002B0002CDE001005005250DE65F46840FA001094
:1002C000F8B5C04610B5064C2378002B07D1054B76
:1002D000002B02D0044800E000BF0123237010BDB2
:1002E000B010002000000000F8C20010044B10B550
:1002F000002B03D00349044800E000BF10BDC046F6
:1003000000000000B4100020F8C20010064A138854
:1003100001331380054A138801331380044A13887C
:10032000013313807047C046A6450020A845002031
:10033000AA45002010B504490BF092FA4169034820
:1003400006F030FB10BDC046F8C2001000C300101C
:1003500010B5024806F0F4FA10BDC04630C30010D4
:1003600000B587B005AB04AA03A90B4801F018F942
:10037000002803D10849094803F07CF8059A04993C
:10038000039801F0D1F8064B0093012200210620CA
:1003900003F088F807B000BD8807020044C30010CE
:1003A000406BED0770B504000E0015000F4B196887
:1003B00002F064FF0221300001F04AF90221280016
:1003C00001F046F922003032216BC0231B02194094
:1003D00080235B011A43116020002C30E26A602107
:1003E00051406E220A4003431A6070BD0806002087
:1003F00030B583B00C00002313E06B46DA1D157096
:10040000002106E083699B06FCD413780360013168
:1004100001320029F6D023780D3B5A425341DBB21A
:1004200001342578002D27D0002BE6D1134BC318BB
:100430005A4253415B00124A9B5EAB420DD06B4661
:10044000DA1D157000210029E5D183699B06FCD4D3
:100450001378036001310132F5E76B46DA1D0D2395
:10046000137000210029EAD183699B06FCD413781C
:10047000036001310132F5E703B030BD0080FCBFFD
:100480008C45002010B5002102F076FB10BD70B540
:100490000500D0231B0610229A611A20FFF7F2FFF5
:1004A000002407E0D0231B0610229A611A20FFF7D0
:1004B000E9FF0134072C08DC2B002341DB07F1D5D1
:1004C000D0231B0610225A61F0E7D0231B0610220E
:1004D0005A611A20FFF7D6FF70BD10B582B0040034
:1004E00007E06A46D11D0B700122032009F0BCFA17
:1004F00001342378002BF4D102B010BDF0B583B0E5
:100500008022520100211E4806F0F4F80024012741
:10051000002F27D014221B49032009F02BFB0600D3
:10052000002508E00134E4B2164B5B5D0A2B11D0C4
:10053000082B11D00135B54216DA124B585D06F082
:10054000CBF90F4B1B5D002BECD10E4B1A780C4BEB
:100550001A55E7E70027EBE70B48FFF7BEFF0B480C
:1005600006F020FA03B0F0BD6B46DD1D2A000A211B
:10057000032009F0F1FB2B781C2BC9D1F2E7C04610
:100580008C3500207C16002078C30010A0C300101A
:10059000F8B52A4806F006FAFFF7B0FF002200215E
:1005A000012A14DC264B985C0400303CE4B2092C90
:1005B00006D88B0059184900411830390132EFE74D
:1005C0002048FFF78AFF204806F0ECF935E01C4F81
:1005D0003B781E4E33707B7873701D4806F0E2F94D
:1005E0001C48FFF77AFF1C4806F066F804008025D7
:1005F0006D012A00390006F083F80D236355174B6F
:100600000A22E254200006F069F82000FFF765FF97
:100610001348FFF762FFEFF3108472B6A1273F0380
:10062000290038000BF048FE2A00310038000BF09A
:100630002BFE2404240C84F31088F8BDBCC30010E6
:100640008C350020D4C3001004C400107C16002098
:1006500028C400103CC4001002100000011000006B
:100660004CC4001070B58CB03A4806F09BF9FFF707
:1006700045FF00200021052814DC374B1A5C1300CD
:10068000303BDBB2092B06D88B00591849005118B2
:1006900030390130EFE73148FFF71FFF304806F0EF
:1006A00081F954E068462F4B020031CB31C231CB87
:1006B00031C231CB31C231CB31C200220B2A40D8FA
:1006C00090006B46C3588B4239D00132F6E7224A7C
:1006D000D05C254AD0540133052BF8DD234806F0C1
:1006E00061F92348FFF7F9FE224805F0E5FF040011
:1006F00080256D012A00184906F002F80D23635584
:100700001D4B0A22E254200005F0E8FF2000FFF70D
:10071000E4FE1A48FFF7E1FEEFF3108472B6A0265C
:100720003603290030000BF0C7FD2A000E493000C7
:100730000BF0AAFD2404240C84F3108807E00023A6
:10074000CAE70F48FFF7C9FE0E4806F02BF90CB0B8
:1007500070BDC04688C400108C350020D4C3001082
:1007600004C4001050CD00107C1600209CC4001062
:10077000B0C400100210000001100000C4C400103A
:10078000F8C4001028C5001010B5303804000B0064
:10079000303B303A642060439900C9184900401842
:1007A000801810BDF0B5CE46474680B587B03F48AB
:1007B00006F0F8F8FFF7A2FE3D4C20786178A278A9
:1007C000FFF7E2FFC6B23B4D2E7020796179A27926
:1007D000FFF7DAFFC7B26F70207A617AA27AFFF76B
:1007E000D3FF8146C3B29846AB70207B617BA27B6E
:1007F000FFF7CAFFC3B29C46EB7002AA2E4B303300
:1008000032CB32C21B6813600023012B14DC294A4F
:10081000D45C9A0002AD5259944206D14A46FF2A4E
:1008200003D8FF2801D80133EFE72448FFF755FE2E
:10083000234806F0B7F834E06346009343463A0095
:100840003100204806F0AEF81F48FFF746FE1F486B
:1008500005F032FF040080256D012A00144905F0DF
:100860004FFF0D2363551A4B0A22E254200005F076
:1008700035FF2000FFF731FE1648FFF72EFEEFF39D
:10088000108472B69F263603290030000BF014FD49
:100890002A00084930000BF0F7FC2404240C84F3F0
:1008A000108807B0C0BCB946B046F0BD48C50010BE
:1008B0008C3500207C16002050CD001060C5001043
:1008C00084C500109CC50010B4C5001002100000C3
:1008D00001100000C0C5001030B589B000241A2CEA
:1008E00006DC035D01AA1355552B03D00134F6E74E
:1008F00001246442002507E001AB585DFFF7C7FD06
:100900000A2002F07DF80135AC42F5DA09B030BDBD
:1009100070B506000C00881C05F0CEFE0500220014
:10092000310005F0EDFE0D232B550134033B2B5513
:10093000280005F0D3FE280070BD0000F8B5CE46B3
:10094000474680B500AF804600241A2C05DC43469C
:100950001A5D552A02D00134F7E700240134A300C0
:100960000733DB08DB006A46D31A9D46E9460025BB
:10097000002608E043465A5D4B4698190F4904F09B
:100980005FF804360135A542F4DB701C05F094FED7
:10099000040049460BF0B0FA200005F09FFE31B28A
:1009A0002000FFF7B5FF0100023632B2032009F044
:1009B0005BF8BD46C0BCB946B046F8BDFCC50010EA
:1009C00070B50500141E02D0012C05D070BD0100C9
:1009D0000448FFF70DFDF7E729000348FFF708FD7E
:1009E000F4E7C046004003400080034070B50400B7
:1009F0000B48FFF772FD022C0DD008DC002C0CD048
:100A0000012C00D1074D2800FFF767FD70BD032CB6
:100A1000F9D1054DF7E7054DF5E7054DF3E7C0467C
:100A200028C8001004C7001098C7001004C60010A2
:100A300088C6001010B5401801380378174A1370A3
:100A4000332B20D00AD8312B16D0322B22D1144B85
:100A500002221A600220FFF7C9FF13E0392B19D1D7
:100A60001048FFF73AFDFA20C00001F0C9FF01214C
:100A7000012002F00DFFFEE7094B01221A60012060
:100A8000FFF7B4FF10BD064B03221A600320FFF7E7
:100A9000ADFFF7E70448FFF720FDF3E7B745002077
:100AA0003433002034C800105CC80010F8B50600CC
:100AB000094F03003A000021002003F0D5FF451C38
:100AC000280005F0F9FD040033003A00290003F086
:100AD000CBFF2000F8BDC04680C80010F0B5D64658
:100AE0004F464646C0B584B00E0015001C00FFF707
:100AF000DDFF07003000FFF7D9FF06002800FFF7F1
:100B0000D5FF05002000FFF7D1FF0400154B9A46E2
:100B10000290019500963B0052460021002003F010
:100B2000A3FF431C9946180005F0C6FD80460294B9
:100B3000019500963B005246494603F095FF380068
:100B400005F0CCFD300005F0C9FD280005F0C6FD1C
:100B5000200005F0C3FD404604B0E0BCBA46B146F3
:100B6000A846F0BD84C8001070B54018013803785D
:100B7000174D2B70D72363220C210A20FFF7AEFFFD
:100B800004002B78332B15D8322B12D2312B1AD1EB
:100B90001048FFF7A2FC1048FFF79FFC2000FFF76A
:100BA0009CFC200005F09AFD0C48FFF796FCFFF72F
:100BB000F9FD70BD392B06D1094B00221A600020C7
:100BC000FFF714FFF5E70748FFF787FCF1E7C0469A
:100BD000B745002094C80010D4C80010E4C8001025
:100BE000343300205CC8001010B540180138037879
:100BF0000F4A1370322B0DD0392B11D0312B03D06B
:100C00000C48FFF76AFC04E00B48FFF766FCFFF7AF
:100C100029FD10BD0948FFF760FCFFF7B9FCF8E7B4
:100C2000074B00221A600020FFF7E0FEF1E7C04604
:100C3000B74500205CC8001000C9001060C9001052
:100C40003433002010B5401801380378184A137067
:100C5000332B1ED00AD8312B14D0322B20D1154B78
:100C600001221A701448FFF738FC11E0392B17D114
:100C7000104B04221A70114B00221A600020FFF75B
:100C8000B5FE05E00B4B00221A700D48FFF725FC5E
:100C900010BD084B02221A700A48FFF71EFCF7E746
:100CA000044B04221A700848FFF717FCF0E7C0460F
:100CB000B745002020060020E4C90010343300208E
:100CC000BCC900100CCA00105CC80010F8B50500C3
:100CD0000E001400264B00221A70022C0BD0032C9D
:100CE0000CD0244B1B78A34230D0220031002800C6
:100CF000FFF766FEF8BDFFF7EFFDF0E7AB19013B2C
:100D00001A781B4B1A701C4F3868FFF76FFE3B6850
:100D1000022B16D008DC002B0ED0012BE1D13100C4
:100D20002800FFF721FFDCE7032BDAD12200310096
:100D30002800FFF787FFD4E731002800FFF77AFE8D
:100D4000CFE731002800FFF74FFFCAE7022C0AD097
:100D500031002800FFF7DCFD0100B21C12B20320B5
:100D600008F082FEC1E72800FFF7E8FDBDE7C046B6
:100D7000B74500202006002034330020F0B58DB0A8
:100D800004000D000392272702AB9C4667443A00FB
:100D90000A2108F0E1FF0023FB56172B3BD012DCA1
:100DA000002B00D1B8E0132B0BD1200008F0E4FD9C
:100DB000060001282CD1039A21006A4805F0F2FDB3
:100DC00026E0012624E01C2B21D12100664805F0F5
:100DD000E9FD0BAE32000921200008F0BDFF002222
:100DE000B35E002B00DC8BE080221201934200DD19
:100DF00032800BAB00229A5E2900200008F0BAFE78
:100E00000700061E04DD0BAB1880002073E00126EE
:100E100030000DB0F0BD262602AB9C466644320081
:100E20000521200008F0F0FE3378DB071DD40BAE5F
:100E300032000921200008F08FFF0022B35E002B52
:100E400000DC8DE080221201934200DD32800BAB8A
:100E500000229A5E2900200008F08CFE0700061E82
:100E6000D6DD0BAB1880002035E006AE3200042141
:100E7000200008F071FF0F2202AB9C4662440B2158
:100E8000200008F069FF32787378B178F07801902B
:100E900000912100354805F085FD05AE32000521A1
:100EA000200008F059FF3188314805F07BFD2322EE
:100EB00002AB9C466244012313700421200008F019
:100EC000A3FEB4E786B29B1B19B228182200FFF7D5
:100ED000FDFEF61930B20BAB00229B5E8342F1D1CE
:100EE000012695E786B29B1B19B228182200FFF74E
:100EF000EDFEF61930B20BAB00229B5E8342F1D1BE
:100F0000200008F069FD0600012800D080E72100DC
:100F1000184805F047FD7BE72100174805F042FD22
:100F20000123039A0121200008F01CFCC0B2844276
:100F30000FD1A0000130C000C0239B019C4660443B
:100F400009F08CFD020021000C4805F02BFD012664
:100F50005EE721000A4805F025FD0126764257E7A5
:100F6000052655E7B4CA001080CA001034CA001024
:100F700070CA001098CA0010F0CA00103CCB0010D4
:100F800018CB001010B5024805F0DAFC10BDC046C1
:100F90005CCB001070B506000D000024012C10D8A9
:100FA000E300094A995830000AF062FF002801D096
:100FB0000134F3E7E400044B1C19636828009847E8
:100FC00001E0FFF7DFFF70BD0C06002070B51500D3
:100FD0000AF040FC041E10D029000AF041FC051E56
:100FE00012D001690A4805F0DDFC28692100FFF7ED
:100FF000D1FF20000AF0D4FB70BD0AF0CBFB01004A
:10100000044805F0CFFCF7E7034805F099FCF0E74A
:1010100084CB00106CCB0010A0CB0010F0B5C646FE
:1010200000B58AB004000D00160027276F443A006F
:101030000A2108F091FE0023FB56172B3FD013DC4A
:10104000002B00D1B7E0132B0BD1200008F094FC4B
:10105000804601282ED1320021006B4805F0A2FC09
:1010600028E00123984625E01C2B21D12100674868
:1010700005F098FC09AE32000921200008F06CFE52
:101080000022B35E002B00DC89E080221201934233
:1010900000DD328009AB00229A5E2900200008F0B2
:1010A00069FD071E804605DD09AB1880002071E050
:1010B0000123984640460AB080BCB846F0BD2626BB
:1010C0006E4432000521200008F09EFD3378DB07D6
:1010D0001DD409AE32000921200008F03DFE002297
:1010E000B35E002B00DC8CE080221201934200DD15
:1010F000328009AB00229A5E2900200008F03AFDF8
:10110000061E8046D6DD09AB1880002031E004AE13
:1011100032000421200008F01FFE0F226A440B2138
:10112000200008F019FE32787378B178F0780190D9
:1011300000912100364805F035FC03AE3200052150
:10114000200008F009FE3188324805F02BFC2322EC
:101150006A44012313700421200008F055FDB8E70C
:1011600084B21B1B19B228182B4AFFF72FFFA419B2
:1011700020B209AB00229B5E8342F1D10123984645
:1011800098E786B29B1B19B22818244AFFF71EFF66
:10119000F61930B209AB00229B5E8342F1D12000E8
:1011A00008F01AFC8046012800D083E721001C4883
:1011B00005F0F8FB7EE721001A4805F0F3FB012358
:1011C00032000121200008F0CDFAC0B2844210D1D3
:1011D000A0000130C000C0239B019C46604409F080
:1011E0003DFC02002100104805F0DCFB012398467D
:1011F00060E721000D4805F0D5FB01235B429846CE
:1012000058E70523984655E7B4CA001080CA001075
:1012100034CA001070CA0010C8CB0010CCCB00102C
:1012200098CA0010F0CA00103CCB001018CB001078
:101230000068C840C0B2704770B5040015000A00CD
:101240001449FFF79BFD052802D000232B8070BDB9
:101250002A88114B1B689A42F9DD80221201002175
:10126000200008F087FC002802D000232B80EEE746
:1012700021000A4805F096FB094B1B78A34203D0D6
:10128000200008F0A9FBF0E721220649032008F01E
:10129000EBFBF5E7242700201C060020D8CB00102C
:1012A0002006002008CC0010F0B5DE4657464E461A
:1012B0004546E0B599B0FFF753F805F07FFB0D22E6
:1012C0000C217B48FFF76EF8092208217948FFF7C7
:1012D00069F8042000F0EEF9D02424061025656298
:1012E000052000F0E7F92023A36200220121052058
:1012F00000F0C6F96561002000F0DCF90F3D656281
:10130000012000F0D7F90223A362656163616A4C92
:1013100000212000FFF78CFF834608212000FFF703
:1013200087FF824610212000FFF782FF0700182167
:101330002000FFF77DFF0500604C00212000FFF733
:1013400077FF060008212000FFF772FF80465C4C03
:1013500000212000FFF76CFF814608212000FFF7E5
:1013600067FF5B461693303B1900564B4B43524682
:10137000179251463039544A514359183C00303C79
:101380006201121B93001B19DB005B182A00303A24
:1013900064215143C9183200303A93009B185B0016
:1013A0005B184246303AD318484CA24623604C465C
:1013B000303CA3001C196400303820184201121A76
:1013C00093001B18DB00424883460360414801F04C
:1013D00017FB414C200005F0B3FA404A4049414810
:1013E00005F0E0FA200005F0ABFA09F0AFFC09F0D7
:1013F000CDFC09F09BFC09F0D9FC09F01DFD3A4831
:1014000009F026FE394C10208146A1445722494656
:10141000684605F075F920686168A268E36809F01C
:1014200029FD3349334805F0BDFAD7230093743BB7
:101430000C220A21304805F0B5FA40460290019688
:1014400000953B00179A16992C4805F0ABFA5B46BD
:1014500019682B4805F0A6FA53461968294805F083
:10146000A1FA57224946684605F04AF920686168A2
:10147000A268E36809F050FD234A24490020FFF7E1
:10148000DBFE234A23490120FFF7D6FE224A2349E7
:101490000220FFF7D1FE224C172221000320FFF784
:1014A0006DFC204A21000520FFF7B8FDE4E7C046A7
:1014B000004003400080034000000A1004000A10AE
:1014C00000100A10A0860100102700000806002066
:1014D0001C060020B80B00002CCC001068CC0010BB
:1014E00074CC001080CC00100D03001090CD0010C3
:1014F00000F0091094CC0010B8CC0010D4CC00102F
:10150000F8CC001018CD0010A6450020891300006B
:10151000A84500208A130000AA4500208813000077
:1015200024270020901F0000F0B583B004000D00B8
:10153000160000F023F9002801D003B0F0BD154FCC
:1015400000973B0001220121053001F0ABFF00961E
:101550002B0022000121104802F0ACF83100694351
:10156000200003F001FB04000C4B00930022022139
:10157000042001F097FF00942300002201210520A0
:1015800001F090FF00973B0002220021062001F0AD
:1015900089FFD2E7006CDC0200800240001BB7002C
:1015A000F0B5DE4657464E464546E0B583B0804628
:1015B0008B4600920193042002F076F8FA2189000C
:1015C00003F0D2FA8246A0235B0099462CE0013C4E
:1015D000002C20D025007D432900300003F0C4FA00
:1015E0004045F4D12900300003F0BEFA0029EED1C5
:1015F00073019B1B9B009E19F6005B461E60009BBF
:101600001F60019B1C60012003B0F0BCBB46B246CA
:10161000A946A046F0BD013F002F01D03C00D7E70E
:1016200001235B429C46E1444B460F2B09D95646A9
:101630004B465E43044BF218044B9A42F0D80727FE
:10164000EAE70020E0E7C046508EF4FF50F80C00B7
:1016500010B58300084A944663441C6840226240E7
:10166000C02414408022520113431C60C000034B6D
:101670009C466044416010BD04C0014000400140F0
:1016800080000B4B9C46604400290DD00823002AA3
:101690000CD004221343026853400C2213408022D2
:1016A00052011043036070470023F0E70022F1E786
:1016B00004C0014010B501238340D022120693627A
:1016C00093610521FFF7C4FF10BD0000EFF3108008
:1016D00072B6034B1B68002BFBD0BFF35F8F7047C4
:1016E0002C0100D0BFF35F8F024B00221A6080F301
:1016F000108870472C0100D0F8B506000C001500CA
:10170000FFF7E4FFE308F718F15C0722224001230A
:1017100093400B4205D1DBB20B433B70FFF7E2FF76
:10172000F8BD2100280001F0A5FEF0B583B0060049
:10173000019114001F00FFF7C9FF00E00134BC4213
:101740000CD8E308F518F35C0721214001228A40F8
:101750001A42F3D1D2B21A432A7001E00124644242
:10176000FFF7C0FF002C02DB200003B0F0BD019B9F
:10177000002BF9D0089801F07DFE0000034B1B6898
:1017800002201840431E9841C0B2704700C0064076
:10179000002307E0054A9A189200BFF35F8F0021EB
:1017A000116001331F2BF5D97047C046400000344B
:1017B000054A1078431CDBB21370172B02D91300B3
:1017C00010221A707047C0462106002000B583B071
:1017D0000100044B00931F2318220348FFF7A5FFC5
:1017E00003B000BDF8CD001080260020074B9B6899
:1017F000103080001950BFF35F8FBFF35F8F044B31
:101800000021196082F310887047C04600ED00E0A7
:10181000240100D010B5091A081F0A4B9C466144E8
:10182000094A914208D8C30706D440104005400D2C
:10183000064B184380B210BD054B064A9921064855
:1018400001F07EFDFC070000FE0F000000E0FFFF3E
:1018500014CE001084D0001044CE001010B5091A28
:1018600004394C08090B08D14905490D064A1143B2
:101870000180064B2343438010BD054B054AA1213F
:10188000054801F05DFDC04600F0FFFF00F8FFFFD6
:1018900094CE001058D0001044CE00100123834095
:1018A000034A10681840431E9841C0B27047C046B2
:1018B00000E100E0002904D0034B1860034B1860DE
:1018C0007047034B1860FBE780E200E000E100E0B6
:1018D00080E100E010B5012383401800FFF7EAFF24
:1018E00010BD000001238340014A13607047C046C9
:1018F00000E200E0024B9B6810308000C058704747
:1019000000ED00E010B5FFF7F5FF002805D0054B0E
:10191000C01A2F2803D8012010BD0020FCE70020AA
:10192000FAE7C0462406002070B504000D00EFF36E
:10193000108672B60C4B1B68002BFBD0BFF35F8F79
:101940002000FFF7D7FF094B984201D0A84205D1EC
:10195000320029002000FFF749FF70BD044B054A03
:101960007C21054801F0ECFC240100D0CD010010E1
:10197000A4CE0010B8D0001044CE0010F0B5DE4662
:1019800057464E464546E0B589B08146019115005F
:10199000EFF3108A72B6744B1B68002BFBD0BFF3B9
:1019A0005F8F724B0027DF57002F40DB7C00E4196C
:1019B000A4006F4824180622A2566C4B1A706D4B77
:1019C0009A684B4610339B00D35898461E001B1A4A
:1019D0002F2B38D9684B98452FD105AE674B3380F4
:1019E0007B009B46D8198000614B984640440230EA
:1019F0006349FFF70FFF7080624BB380FF23B37121
:101A0000F571019B07935F44BF0047440ECE0EC79C
:101A100001231C43A046524641464846FFF7E6FED6
:101A200009B0F0BCBB46B246A946A046F0BD564B35
:101A3000564ACD21564801F083FC564B534AD421D7
:101A4000534801F07DFCC04340440C2103F08CF866
:101A5000002912D101239E43B34633000026DA79D0
:101A6000AA4211D90621595600290CDB4A00521806
:101A700092001E003E4B9B18F1E7474B434AE02182
:101A8000434801F05DFC1E00002E3BD005AB434AED
:101A90001A80813A5A800623F3560293002B18DAF3
:101AA000BD20000205AB9B469880029A9A71DD71B9
:101AB000019A0792301D2100FFF7ACFEB080B7718C
:101AC0007B00DB199B002A4FFF185B4607CB07C73B
:101AD000A1E77800C0198000254BC0180430321DE2
:101AE000B388D90A1C2907D15B0559150231490071
:101AF0005118FFF78FFED5E7294B2A4AA721244822
:101B000001F01EFC05AE1D4B33807B000293D819FB
:101B10008000174A9046020042440392901C1849E4
:101B2000FFF778FE7080039A101D5946FFF772FE8A
:101B3000B0801D4B5A464146521A524153431B0D29
:101B4000B371F571019A0792029B9C466744BF00EE
:101B500047440ECE0EC7114B5A461380813B53802B
:101B600001231C43A04656E7240100D0B5450020C0
:101B70002406002000ED00E0CD01001000A1FFFFD1
:101B80005406002000BDFFFFDCCE0010A0D00010E6
:101B900044CE001004CF00102CCF001001480000EC
:101BA000A0CF001090D00010AAAA0000F0B5CE4639
:101BB000474680B583B006000D00EFF3108872B67B
:101BC000564B1B68002BFBD0BFF35F8F544B9A68BA
:101BD00034001034A300D758524B9F4207D0AF4275
:101BE00000D199E00197504BFB1A2F2B09D942469F
:101BF00039003000FFF7FAFD03B0C0BCB946B0466B
:101C0000F0BD3000FFF74AFE814600213000FFF7AB
:101C100061FEBFF35F8FFEF726FB002801D08442F0
:101C200011D10123019C9C430022A368AB4212D036
:101C30000622A256002A0DDB53009B189B002200AF
:101C4000394CE418F1E72C21384B394AFF31394837
:101C500001F076FB2200AB4257D106256557002DD7
:101C600039DB6B005B199A002F4B9B189A68A260B6
:101C7000DA79E27106229A56A2719B795BB2002B47
:101C800010DABD200002A0806B005B199B00264A81
:101C9000D318294A11789971157049463000FFF719
:101CA00019FEA4E7201D6B005B199B001E4A9B18C0
:101CB0001A1D9B88D90A1C2907D15B055B150233C5
:101CC00059005118FFF7A6FDDDE71C4B1C4AA72160
:101CD000184801F035FB002812D1002A0ED0FF234E
:101CE0009371184B9380144A1378A371164B0E49C5
:101CF000641A644163431B0D1370CEE7094FF2E78A
:101D0000201D1249FFF7AAFDC7E76021104B084AC2
:101D1000FF31084801F014FB024F68E7240100D0AE
:101D200000ED00E0CD01001024060020B8CF001027
:101D300070D0001044CE0010B5450020A0CF001098
:101D400090D0001000BDFFFFAAAA00005E06002090
:101D5000DCCF001070B50400012606432D4BF31AAA
:101D60002F2B28D8FEF77FFA00282BD0EFF3108C0A
:101D700072B6294B1B68002BFBD0BFF35F8F274D3A
:101D800022002449521A524155432D0D6DB2244B65
:101D90009B6880001B58B3421BD00022032A32D814
:101DA00053009B189B001B49CB189B795BB2AB423D
:101DB0001FD00132F2E7C2211A4B1B4A49001B48CF
:101DC00001F0BEFA88211A4B174AFF31174801F07B
:101DD000B7FA134B9B68174A1A50174B1A78A2711F
:101DE0001D70BFF35F8F0C4B00221A608CF31088BC
:101DF00070BD08005300991889004118FF268E71A4
:101E00000E4A8A80E9E7CC210D4B074A4900074872
:101E100001F096FA24060020240100D0AAAA0000AE
:101E200000ED00E0E4CF00103CD0001044CE0010E4
:101E30000CD00010CD010010B545002000BDFFFF03
:101E400018D000100022044B02E0044902C3013202
:101E5000072AFAD97047C04600E400E080808080FD
:101E600000B583B00100D0231B061B680648C018CC
:101E7000064B009305230022FFF757FC002801DBE7
:101E80001F23181A03B000BDA445002020D0001065
:101E9000024B9C4661448900016070474000003459
:101EA00010B50C00CB68834207D108000B69984736
:101EB000002809D02068616810BD9621054B064AAC
:101EC0004900064801F03CFA0023E36000200021AD
:101ED000F2E7C046D4D00010D0D30010E8D00010F4
:101EE00070B505000C00080000F01AFE200000F09C
:101EF00023FF0849200000F063FEFFF759FC064B62
:101F00009C466044800068602C75A400034BE5503B
:101F100070BDC04625220010400000343C33002034
:101F20000A4B1A68EFF3108172B61368002BFCD0CD
:101F3000BFF35F8F054B1B68BFF35F8F00221A60F2
:101F400081F3108840BF00200021704758350020E1
:101F500010B5002922D003681B7B99421ED8174B6D
:101F60009C466144090183689C4661440C68496849
:101F7000002A19D003681B7B9A4215D883680F4842
:101F80008446624412019A181068536802000120C6
:101F90008B4201D80ED00020C0B210BD084B094AB8
:101FA0003B21094801F0CCF9054B064A3B21064884
:101FB00001F0C6F9A242EFD8EDE7C046FFFFFF0FE0
:101FC00034D1001038D40010E8D0001010B500292A
:101FD0001ED0037B99421BD84B005B18033B04685F
:101FE000A4466344002919D0002A1DD0914221D073
:101FF000002A25D0047BA24222D804685000801811
:10200000033820188170197800291FD11A7010BD6B
:10201000104B114A6821114801F092F9104B114AF6
:102020006F310E4801F08CF90F4B0E4A70210B48AE
:1020300001F086F90D4B0B4A7121084801F080F937
:10204000044B054A6821054801F07AF941701A707D
:10205000DDE7C04668D10010A4D4001084D1001080
:10206000E4D1001080D40010F0D10010FCD1001099
:1020700070B506000D001400002914D0002A14D0F9
:10208000806873689847002806D022002900300035
:10209000FFF79CFF280007E02A0021003000FFF72F
:1020A00095FF200000E0100070BD0800FCE7000074
:1020B000F0B583B00500009201930AAB1C780BAB1E
:1020C0001F78002C26D003685A7B944207D1012345
:1020D000002B19D1002C3BD1200003B0F0BD002C07
:1020E0000CD01A7B944209D81A6863001B19033B71
:1020F000D3189B78002BEBD00123E9E73E4B3F4AF6
:1021000068213F4801F01CF93E4B3F4A65213F489A
:1021100001F016F903689C7B002CDBD012D01A7BEF
:1021200094420FD862001219033A19688C4662442F
:1021300051789973002900D1D9730023937053709B
:102140001370C7E72C4B2D4A68212D4801F0F8F891
:10215000002C3AD02B681B7B9C4236D82C4BE318C2
:102160001B01AA6894466344009A1A60019A5A6057
:10217000089A9A60099ADA602E68002C2BD030D029
:10218000337B9C422DD863001B19033B3268944675
:10219000634400229A705A701A70717B22003000DA
:1021A000FFF766FF7073844200D095E7287D009AA0
:1021B000019B00F04DFD061E01D0002F17D00C9B97
:1021C000002B00D188E71E7086E7124B124A3B2194
:1021D0000E4801F0B5F8114B114AA521084801F04D
:1021E000AFF8054B054A6821054801F0A9F82868B1
:1021F000210000F055FFE2E768D10010A4D40010E0
:1022000084D1001014D20010B0D40010E8D0001017
:10221000FFFFFF0F34D1001038D40010E4D00010BD
:1022200094D40010F0B5DE4657464E464546E0B51C
:102230008BB00990002308938200B24BD658370028
:1022400032E0B14BB14A3F21B14801F079F8B14BCE
:10225000B14A3B21B14801F073F8B14BB14A8C212E
:10226000AE4801F06DF8B04BAE4A9021AB4801F09A
:1022700067F8A84BAD4A4021A84801F061F82A68E8
:102280006B68099800F0E4FC00239A4698467B6846
:10229000BFF35F8F00221A6086F310884346002B3D
:1022A00051D1002800D126E100F046FC02000B1EAF
:1022B000C7DB00200021069007917868EFF31086B5
:1022C00072B601680029FCD0BFF35F8F3968884679
:1022D0004C7B002C32D0BAD0097B8C42B7D89449C1
:1022E00065182D01B9688C46654428686968801AAC
:1022F00099410029C3DC01D10028C0D1002140460A
:1023000000F0C4FEA042A8D12A686B680692079329
:10231000AB689846EB689A464346002BA3D0002C46
:10232000A7D03B681B7B9C42A3D8631EFA68D35C92
:1023300008931B02184338610020A8E700239A463F
:1023400098460020A3E7089B1B0223439946514669
:102350001800C04705000E007A68EFF3108B72B6C4
:10236000136859424B41D9B2002BF9D1BFF35F8FAB
:10237000002E26DB002E52DD3B69002B53D04B454F
:1023800072D100F0D9FB02000B1E73DB01001800B4
:1023900052197341984202D804D1914202D90122C4
:1023A0005242D317002B6BDB0021049101310391C2
:1023B000029451460191414600913800FFF778FEA2
:1023C00049E03B69002BD5D04B451CD1069A079BB1
:1023D00010001900521BB341994202D804D1904217
:1023E00002D901225242D317002B12DB00210491A3
:1023F0000131039102945146019141460091380008
:10240000FFF756FE27E04B4B464A9F21434800F01A
:1024100097FF3D4B3D4A3F213D4800F091FF002E84
:1024200001D1002DA8D13A68002C45D0537B9C42A5
:102430002CD1012100293FD1D37B002B42D1D47371
:10244000002C52D03B681B7B9C424ED8FA68013C62
:10245000135D0133135500233B617A68BFF35F8F2F
:1024600013608BF310881FE7324B2E4AA2212B48B2
:1024700000F066FF244B254A3F21254800F060FF0D
:10248000214B224A3F21224800F05AFF002C0DD058
:10249000137B9C420AD863001B19033B10688446D7
:1024A00063449B78002BC5D00121C3E7224B234A0C
:1024B0006821234800F044FF224B234AF62120489C
:1024C00000F03EFF002B0AD0117B8B4207D8590049
:1024D000CB18033B11688C4663445C70AFE7164B26
:1024E000164A6821164800F02BFF0A4B0F4A40217C
:1024F0000A4800F025FF0BB0F0BCBB46B246A94627
:10250000A046F0BD3C3300203CD2001004D40010A3
:1025100058D2001034D1001038D40010E8D0001088
:10252000B0D200101CD40010C8D200105CD400102F
:10253000FFFFFF0FD4D2001068D10010A4D4001008
:1025400084D1001010D3001070D4001010B50A4BC5
:102550005B68002B04D00A210848FFF799FC10BDE6
:10256000054C2300064A1021206800F0AFFC03212F
:102570002000FFF7B5FCEEE76C0600205835002080
:10258000511F001010B5064B5B68002B01D00448AA
:1025900010BD044B044A5C21044800F0D1FEC04643
:1025A0006C06002034D3001044D40010E8D0001092
:1025B000F0B5DE4657464E464546E0B58BB0804600
:1025C00016001F00149B9A46159B994616AB1B7864
:1025D0009B461F2302AA9446634400221A7032E0ED
:1025E000002809D042461268127B904204D8421E4D
:1025F0004146C9688A5C48E0434B444A402144480C
:1026000000F09EFE0798002B75D05B46002B72D021
:102610004946D04704000D0003000B4300D171E090
:10262000002946DB00F088FA06000F1E55DB36193C
:102630006F41B94202D804D1B04202D90126764294
:10264000F717002F4FDB43465A68EFF3108472B63A
:10265000136859424B41D9B20791002BF8D1BFF30F
:102660005F8F1F3302AA94466344049300230393AD
:1026700002934B4601935346009332003B00404681
:10268000FFF716FD031EABD1020041464968BFF3B8
:102690005F8F00250D6084F31088002B29D01F2345
:1026A00002A98C4663441B78002BABD11202104365
:1026B000A9E732003B00361BAF41BB4202D804D130
:1026C000B24202D901267642F717002FBBDA114B2E
:1026D000114A3F21114800F033FE0E4B0E4A3F21B4
:1026E0000E4800F02DFE0B4B0B4A3F210B4800F02B
:1026F00027FE012040420BB0F0BCBB46B246A946C3
:10270000A046F0BD0798F6E734D100105CD4001065
:10271000E8D000103CD2001004D4001058D20010B1
:10272000F8B504004268EFF3108572B6136858429A
:102730004341D8B2002BF9D1BFF35F8FCBB22268EF
:10274000567BB3421BD10120002848D02069884223
:102750002BD0090AC9B2002B2ED02068007B8342FF
:102760002AD8581EE668305C88422BD00020636867
:10277000BFF35F8F00221A6085F31088F8BD002B2D
:102780000DD0167BB3420AD85E00F618033E1768D8
:10279000BC466644B678002ED6D00120D4E7134B51
:1027A000134A6821134800F0CBFD8521124B134AD0
:1027B0004900134800F0C4FD124B134A4021104851
:1027C00000F0BEFD1900100000F06AFC0028CED118
:1027D00012210E4B094AFF31094800F0B1FD23696F
:1027E0008B42C4D100232361C1E7C04668D10010E9
:1027F000A4D4001084D1001058D30010ECD30010E2
:10280000E8D0001034D100105CD400107CD300104C
:10281000F0B585B00700100019000C9E13000B43A3
:1028200001D101200021B7600A9B336130607160E3
:102830000B9B7361CA1713005040040051400D00F8
:10284000A41A9D4100F078F902000B1E1ADB01006A
:10285000180012196B41984202D804D1914202D952
:1028600001225242D317002B12DB01210291019663
:102870000A4900913800FFF79BFEF060C043C00F8B
:1028800005B0F0BD064B074A3F21074800F058FD50
:10289000034B044A3F21044800F052FDA11E0010E2
:1028A0003CD2001004D4001058D20010F0B587B00C
:1028B00006000F00FDF7D7FC00281FD10624644254
:1028C000E517A4197D41BD4202D803D1B44201D914
:1028D00000240025002D14DB0494059500F02CF94C
:1028E00002000B1E13DBA41A9D41002D17DC14D02F
:1028F0003000390000F02CF907B0F0BD234800F09B
:10290000B9FD234B234A3F21234800F019FD204BFA
:10291000204A3F21204800F013FD002CE8D0FFF7AB
:1029200031FE0023029301931C4B0093049A059BF4
:10293000FFF73EFE002818DADAE7002300E0002364
:10294000002BD5D1164B1A68EFF3108172B61368BD
:10295000002BFCD0BFF35F8F114B1B68BFF35F8F61
:1029600000221A6081F3108820BF0499059A0D4B4C
:102970005B6A9A42E3D80B48806A884203D29A4243
:10298000DBD00123DCE70123DAE7C04680D3001067
:102990003CD2001004D4001058D20010211F0010A7
:1029A0005835002000400540F8B504000D0000F047
:1029B000C3F802000B1E10DB2000290080185941CB
:1029C0008B4202D804D1824202D901204042C11771
:1029D000002908DBFFF76AFFF8BD064B064A3F21D6
:1029E000064800F0ADFC034B034A3F21034800F0CA
:1029F000A7FCC0463CD2001004D4001058D20010EE
:102A000010B5FA2292000023002103F0A3FDFFF786
:102A1000CBFF10BD70B584B006000C00FFF7B2FD0F
:102A2000002302930193194B009332002300FFF718
:102A3000BFFD051E11DD20BFFFF7A4FD2900FFF734
:102A40006FFE134B5B6A9C421BD8114A926AB242DA
:102A50001AD29C4213D0012014E00D4B5B6A9C42B9
:102A600009D80B4A926AB24207D29C4201D0012097
:102A700008E0002006E0002004E0012002E0002041
:102A800000E0002004B070BD0120FBE7211F001012
:102A90000040054070B5EFF305833F201840103823
:102AA000EFF3108C72B6194B1B68002BFBD0BFF3F1
:102AB0005F8F012319008140154A5163154A12782E
:102AC0001400C440234214D0114B5C6A8300124DA1
:102AD0005B599C4206D38300104C1B598A430D4915
:102AE0000A7007E00A4A031D9B0099589950002379
:102AF00000E00023BFF35F8F044A002111608CF3D4
:102B00001088002B00D0984770BDC046280100D027
:102B100000400540BA4500207C3500206C1500209F
:102B200010B50100024A0348FEF7E6FD10BDC0469D
:102B3000C8D40010B4450020044B5B6A034A906A75
:102B40001900536A9942F9D17047C04600400540C8
:102B5000084B5B6A01E0074B5B6A8B42FBD301E0E9
:102B6000044B5B6A8B4203D1024B9B6A8342F7D3CF
:102B70007047C0460040054070B504000D00FFF7E7
:102B8000DBFF02000B0020002900801859418B4216
:102B900002D804D1824202D901204042C117002943
:102BA00002DBFFF7D5FF70BD024B034A3F2103480C
:102BB00000F0C6FB3CD2001080D5001058D20010A7
:102BC00070B504000D00EFF3108672B61B4B1B6846
:102BD000002BFBD0BFF35F8F002D1CD02000FEF731
:102BE00089FE174B83420BD019002000FEF79CFE94
:102BF00001212000FEF76EFE0123A340114A13605D
:102C0000A400114BE550BFF35F8F0C4B00221A60FC
:102C100086F3108870BDA2000B4B0021D150012219
:102C2000A2400A490B7893430B7005492000FEF738
:102C3000BDFF00212000FEF74DFEE4E7280100D093
:102C4000952A0010386005406C150020BA45002018
:102C5000F0B5DE4600B584B00400150001921E00F8
:102C60000293FFF769FF03958E4202D84ED1854249
:102C70004CD9EFF3108B72B6274B1B68002BFBD09F
:102C8000BFF35F8F254A17780125A540EBB23B4380
:102C90001370234B5D63221D92000199D150A20055
:102CA0002049029850501B6A2B4212D11C4B1B6CBE
:102CB0002B4208D00020BFF35F8F174B00221A6011
:102CC0008BF3108823E0184B184AC121184800F0F4
:102CD00037FBFFF731FF8E4214D802D1039B8342AA
:102CE00010D80E4B1B78BB420ED00D4B1D625D639E
:102CF0001F2004400123A3400E4A1360074B1F709E
:102D00001E38D8E70020D6E70120D4E7012004B020
:102D100080BCBB46F0BDC046280100D0BA450020AB
:102D2000004005407C350020ECD4001064D5001034
:102D300010D5001080E200E0EFF3108C72B60B4B60
:102D40001B68002BFBD0BFF35F8F01238340084A31
:102D5000136208490A789A430A70BFF35F8F034BE6
:102D600000221A608CF310887047C046280100D0FA
:102D700000400540BA45002010B500291ED0037B55
:102D800099421BD84B005B18033B0468A44663447C
:102D9000002919D0002A1DD0914221D0002A25D027
:102DA000047BA24222D804685000801803382018FF
:102DB0008170197800291FD11A7010BD104B114A6B
:102DC0006821114800F0BCFA104B114A6F310E48CF
:102DD00000F0B6FA0F4B0E4A70210B4800F0B0FA23
:102DE0000D4B0B4A7121084800F0AAFA044B054A22
:102DF0006821054800F0A4FA41701A70DDE7C0466A
:102E000068D1001098D6001084D10010E4D10010D1
:102E100084D60010F0D10010FCD1001070B506006F
:102E20000D001400002914D0002A14D080687368A3
:102E30009847002806D0220029003000FFF79CFFA9
:102E4000280007E02A0021003000FFF795FF20004E
:102E500000E0100070BD0800FCE7000010B5002382
:102E6000437301338373037BC3730123027B9A4251
:102E700014D9002B0CD0027B934209D85A00D218E7
:102E8000033A01688C4662440133DBB25370EDE7CC
:102E90000B4B0C4A68210C4800F052FA002A09D06A
:102EA000924207D8016853009A18033A8A180023FF
:102EB000537010BD024B034A6821034800F040FAEA
:102EC00068D1001098D6001084D1001010B501739D
:102ED00042608360FFF7C2FF10BD000070B50400C0
:102EE000081E00D170BD002934D0237B994231D80F
:102EF0004B005B18033B2268944663445A78002ACF
:102F0000F0D02DD0237B9A422AD853009B18033B44
:102F100021688C4663445D7800215970002825D0D3
:102F2000237B984222D843001B18033B21688C4620
:102F300063440021597001002000FFF76FFF060075
:102F400029002000FFF7CAFF020031002000FFF730
:102F500065FFC7E7084B094A6821094800F0F0F906
:102F6000054B064A6821064800F0EAF9024B034A7D
:102F70006821034800F0E4F968D1001098D60010E9
:102F800084D1001070B505000C001600002928D06F
:102F90002DD0037B99422AD84B005B18033B026873
:102FA000944663445A78002A27D19A78002A2AD175
:102FB0001978FFF793FF0300002E03D0EA7B002A65
:102FC00027D1EC73002B37D1002C49D02B7B9C42AE
:102FD00046D82B6861000C19033C1C190023637050
:102FE00070BD224B224A3821224800F0A9F9224B19
:102FF000224A6821224800F0A3F9224B1C4A3A21B8
:103000001C4800F09DF9204B194A3B21194800F05B
:1030100097F9002A0AD0297B8A4207D851008A18DA
:10302000033A29688C4662445470CAE7124B134A2B
:103030006821134800F084F9002B0BD02A7B9342BF
:1030400008D843001B18033B2A68944663440022B7
:103050009A70B9E7084B094A6821094800F070F9ED
:10306000054B064A6821064800F06AF998D5001019
:1030700070D60010A0D5001068D1001098D60010AE
:1030800084D10010ECD5001014D6001070B50400E7
:103090000A00457B2900FFF775FF6073280070BDAB
:1030A00070B50400002967D0437B8B420ED0002905
:1030B00011D0037B99420ED84B005B18033B02688A
:1030C000D0188378002B0CD1002056E00121FFF7A7
:1030D000DDFF012051E0294B294A6821294800F0F1
:1030E0002FF9002B20D0227B93421DD85A00D318F1
:1030F000033B2268D2182568EB5C8B421AD0002B68
:103100001BD0227B934218D85A00D318033B226865
:10311000D21853788B4216D0002BF0D11A4B1B4A91
:1031200067211B4800F00CF9144B154A682115481B
:1031300000F006F94378137007E0104B104A68213D
:10314000104800F0FDF843785370002383704370FB
:1031500001222000FFF716FF0200617B814205D0AB
:103160002000FFF75BFE6073012006E0094B074A71
:103170006D21074800F0E4F8002070BD68D1001010
:1031800098D6001084D1001018D0001058D6001026
:10319000A0D5001038D6001010B50400FEF708FBCB
:1031A00001002000FEF774FEFF232371BFF35F8F41
:1031B00010BD10B50400FEF7FBFA01002000FEF779
:1031C00067FEFF23237100236371BFF35F8F10BD80
:1031D000034B9C46614489000160BFF35F8F7047D9
:1031E0004000003410B504000120FEF7EFFA0100A2
:1031F0002000FFF7EDFF10BD70B504000D000620A4
:1032000000F052FAC000290001F0AEFCC60908D057
:103210000E4B9E4217D87F231840013035004608D8
:1032200000E001256562A6622C3480208001044301
:1032300000232360062000F037FA8000A9018919D5
:1032400001F092FC70BD0026014DEBE7FEFF00008F
:10325000FFFF0000002909D00A22064B9C4660446B
:10326000434258414000044BC252704780225200F2
:10327000F3E7C0460080FCBF8C45002070B5050018
:103280000C00062000F010FA002829D0164B9D42B1
:1032900027D08022D203154B1A60154B1A60154BAC
:1032A0009B6811009943FAD100212800FFF7D2FF53
:1032B00021002800FFF7A0FF2C002C34E96A6022CF
:1032C0004A406E21114080225201224311600A4B74
:1032D0002B6380239B01234310221A600323AB64DA
:1032E00070BD80221204D6E70080034000E0004059
:1032F00000F0004000C000400103000000BEFDE7F8
:1033000003000A4A1268002A08D0084A1068C31845
:10331000074A9A4206D3054A13607047034A054993
:103320001160F2E701204042F7E7C0462C2F002051
:1033300000000420BC45002010B5FFF7DFFF0000AF
:1033400010B582B00C001900002A0CD0084B002ADE
:103350000BD00192009323000200064803F022FBE9
:103360000120FFF7CBFF044BF1E7034AF1E7C0462A
:1033700080D7001090D7001084C6001070B52B4B7A
:103380002B4A1A602B4B2C4A1A602C4B9A682A4BFA
:103390009343FAD12A4C01E008CC9847294B9C4230
:1033A000FAD300F001F9234B274A1A60234B9B689C
:1033B000DB43DB01FAD1254B40229A675A671A6733
:1033C000DA66234C09E0234B234A83212348FFF785
:1033D000B7FF2000FFF7E0FE0834214B9C4209D2E2
:1033E0002368002BF5D0012BEDD12000FFF7E1FE83
:1033F0000834F2E71B4CA1681B4DC022280003F0E3
:103400007FF9A560FCF72FFF002800D000BEFEF773
:10341000BFF9FEF717FDFFF799F8144C01E008CC4F
:103420009847134B9C42FAD370BDC04600E0004061
:10343000BFCDFBFE00F00040FE7F3C0000C000401E
:10344000780F0020880F0020FFFFFF0100F00140EF
:10345000700F0020C0D7001044D80010E0D7001033
:10346000780F002000ED00E000000020880F002011
:10347000900F00200FB400B583B0084803F060FA45
:10348000049B002B07D005A90191180003F068FAEE
:10349000034803F055FA0120FFF730FF34D800103D
:1034A00024C80010F8B5DE4657464E464546E0B5FE
:1034B00005000F0092460A9A93424ED31A0E914687
:1034C0001E020A9A00233000494601F08FFB804615
:1034D0006C006419A4002F4B9C46644463688342CB
:1034E00000D260602B1FDBB29B46012B3BD9C0236F
:1034F0009B012343802212011A60AB00264A99588F
:10350000002905D0506901F02FFB01300138FDD1B1
:1035100053465A0123685A40E0231A4080235B0136
:1035200023431A605A46012A28D980239B0123434A
:10353000802212011A604346636042460023300035
:10354000494601F053FBAD00134B58510120F0BC2C
:10355000BB46B246A946A046F8BD104B104A2D21E5
:103560001048FFF7EDFE012FC1D1C0239B0123437B
:1035700003221A60A368DB07FCD5C9E721687940FC
:1035800003220A401A60A2680123BB401342FAD00A
:10359000CBE7C046008000408426002054D80010AD
:1035A000C0D8001068D8001030B583B00C2000F0EF
:1035B00021F9FEF7E3F800280DD0002304E099007C
:1035C0002D4A2E4888500133092BF8D92A4B2C4A12
:1035D0005A6203B030BD2B4B00229A6700F088F985
:1035E000294B01221A60274B5B6C012BFBD1274B27
:1035F00003221A60234B9B6B012BFBD101330093F9
:103600000433234A0121234800F054F80523009392
:10361000214A0121214800F04DF8214B009300225E
:1036200002210420FFF73EFF1E4D00952B000022D3
:1036300001210520FFF736FF104C009423000022E3
:1036400000210720FFF72EFF009423000022002115
:103650000820FFF727FF0A4B0093230000220021D8
:103660000920FFF71FFF00952B00002200210620F4
:10367000FFF718FFADE7C04684260020006CDC028F
:103680001BB70000008000403CB0004030B000405C
:10369000002F685900800240008C864700C002401D
:1036A000001BB700405973078000014BC05870479A
:1036B00084260020F0B5C64600B504000F009046F1
:1036C0001D000C2001F050FA06003D4A42443D4BDB
:1036D0009A4243D843011B1A9901C91AC900091813
:1036E0008901404601F040FA0200103A98235B003D
:1036F0009A4239D86B1E062B3CD8069B013B062B01
:1037000038D8069B9D423BD343461A09B2423DD36B
:103710002D04069B1E0335432368002B3CDB2A4BFC
:103720009C424AD080225201284B1A60284B1A60D2
:10373000284B9B6811009943FAD12760A060231D94
:10374000C02292011A43212313602368002BFCDA64
:10375000E5600823136080BCB846F0BD1E4B1F4ACD
:1037600011211F48FFF7ECFD1E4B1C4A19211C4874
:10377000FFF7E6FD1C4B194A1C211948FFF7E0FD35
:103780001A4B164A22211648FFF7DAFD184B134A46
:1037900025211348FFF7D4FD22683F231340BB4285
:1037A000BDD1A3681B051B0D8342B8D1E368EE228F
:1037B000D2021340AB42B2D1CDE780229201B3E7EF
:1037C00080E84BD380F8A93200C0024000E00040FE
:1037D00000F0004000C00040D0D800101CDA0010FB
:1037E00030D9001080D900109CD90010E8D9001001
:1037F00000DA001080239B000343014AD362704724
:1038000000800540024B1A68024B5A607047C04660
:10381000303300200080054010B50200164B802098
:10382000C0051860154B1648186000290AD0154BC2
:10383000E021C9041960002A09D1124B8022120626
:103840001A6010BD0C4BE021C9041960F3E7530165
:103850009B1A9800801800010B4B186080235B04B2
:10386000984202D3084B094A1A60FFF7CBFF054B79
:103870008022D2051A60E4E700B00540082001402C
:10388000FCFF010000A0054030330020FFFFFF00D7
:1038900010B5034B034ADA61FFF7BEFF10BDC04607
:1038A000008005402131B76A10B5030010000C4AB2
:1038B0008024E4051460002B0DD001221343094A33
:1038C000094CD461094C5C4014625162936200213E
:1038D000FFF7A2FF10BD034B0022DA61F7E7C046F5
:1038E00000B0054000800540D3C007B02D3FF84F21
:1038F000064BAA2212011A602F22DA60044B054AF5
:103900001A60024B5B68002BFBDA704700400240F4
:103910000060024000B0FA009A4200D2885470471A
:10392000704710B5002802D00B684968984710BD51
:103930000100002007E083001B185B00501C08609A
:103940001078C01830380A681378303BDBB2092B86
:10395000F1D97047F0B5DE4657464E464546E0B5CC
:1039600083B093461F000C9B9A460D9C0E9B994674
:103970000F9B9B0703D0B8460F00060022E0019280
:10398000A34688464E46B9460700B44207D2551CA6
:103990004B4641462020B84701342A00F5E73D0058
:1039A0004F465C46019B9B46B1464646B8463700AB
:1039B0002E0007E0013C551C5346185D4346390074
:1039C000B0472A00002CF5D135003E0047460F9B3A
:1039D0009B0707D4100003B0F0BCBB46B246A94613
:1039E000A046F0BDB0464E46B9462F005D46531B7B
:1039F000B342EFD2541C4B4641462020B847220028
:103A0000F5E7F0B5CE46474680B585B09446984672
:103A10000C9D0D9C0EAB1B789946109A119B129E23
:103A2000B7071CD4002B0CD0F7070AD54F46002F40
:103A300002D10C37374204D0013B02E030272F552A
:103A40000134944201D21F2CF8D9F70707D59C42C4
:103A500005D21F2C03D830272F550134F5E7F70680
:103A600015D5770505D4002C03D0944224D09C4270
:103A700022D00F9A102A2BD00F9A102A30D00F9AEA
:103A8000022A35D01F2C02D830222A5501341F2C8F
:103A900005D84A46002A31D02D222A5501340396F2
:103AA00002930194009543466246FFF753FF05B029
:103AB000C0BCB946B046F0BD621E012C06D00F9FB7
:103AC000102F01D01400D4E7023CD2E71400D0E755
:103AD000B206D1D41F2CCFD878222A550134D1E791
:103AE000B206CCD51F2CCAD858222A550134C9E7B2
:103AF0001F2CC7D860322A550134C3E7720703D59B
:103B00002B222A550134CAE73207C8D520222A556C
:103B10000134C4E7F0B5DE4657464E464546E0B5AB
:103B200093B081468A46089209931CAB10CB1B7850
:103B30009B461E9D219B9846002C03D11023424694
:103B40009A4390468023DB0046461E4042461A4276
:103B500012D0002C22D000260EE03033D9B2771CD0
:103B60000AAB99552900200000F0FEFFAC4216D3A5
:103B70001F2F14D83E0004002900200000F0F4FF9D
:103B8000CBB2092BE9D94246920605D54121C91885
:103B9000C9B20A39C9B2E2E76121F8E72700434612
:103BA0000693209B05931F9B049303955B4602930A
:103BB00001970AAB0093099B089A51464846FFF7C4
:103BC00020FF13B0F0BCBB46B246A946A046F0BDEC
:103BD000F0B5DE4657464E464546E0B595B00890EE
:103BE00009910A920B931E9E1F9C20AB1B789B464B
:103BF000229B9946239D269B9A463300234303D15B
:103C0000103352469A4392468023DB0057461F40AA
:103C100052461A4219D0330023432DD0002714E016
:103C20003033DAB27B1C98460CABDA554A462B008F
:103C30003000210000F0DAFFA5421FD819D043461A
:103C40001F2B1BD8474606000C004A462B003000AD
:103C5000210000F0CBFFD3B2092BE1D952469206E6
:103C600005D54122D218D2B20A3AD2B2DAE761229D
:103C7000F8E7B145E3D901E000239846534606939F
:103C8000259B0593249B04934B4603935B46029329
:103C9000434601930CAB00930B9B0A9A0999089831
:103CA000FFF7AFFE15B0F0BCBB46B246A946A04632
:103CB000F0BD0000F0B5DE4657464E464546E0B53D
:103CC00091B083468A460C9298461A9C08941B9D94
:103CD000099522002B002000290001F01EFA00287F
:103CE00000D0E5E001225242D74B2000290001F02C
:103CF0000FFA002800D0DBE001225242D34B200013
:103D0000290001F0EFF9002800D0D1E000220023C3
:103D1000089E3000099D290001F0E4F9002800D038
:103D2000DDE008980999069007918023DB001E9A30
:103D30001A400D921E9A1A4201D106231C9306982E
:103D4000079904000D000A000600024300D1D1E0EB
:103D5000080D4005400DBE4CA44660440A03120BFA
:103D6000BC4B13431F0001F0EBF9BB4ABB4B01F006
:103D70006EF9BB4ABB4B01F043F904000D00002271
:103D8000B94B3000390001F032F9B84AB84B01F0B4
:103D90005EF902000B002000290001F031F901F06A
:103DA000E7F9814601F0CCF904000D00B14AB24BAD
:103DB00001F04DF90022B14B01F022F901F0D8F9E0
:103DC0000600AF4AAF4B2000290001F040F9040083
:103DD0000D00300001F0B4F9AB4AAC4B01F037F9FB
:103DE00002000B002000290001F001F904000D0081
:103DF00002000B0001F02BF90A900B91A44BF31871
:103E000000261F0522002B002000290001F0F8F8F1
:103E10000E900F9122002B0000208021C90501F097
:103E2000E6F804000D0000229A4B0A980B9901F065
:103E3000F0F80022984B01F0E3F802000B000A981A
:103E40000B9901F0E6F80022944B01F0D9F802003A
:103E50000B000A980B9901F0DCF802000B0020001F
:103E6000290001F0CDF802000B000E980F9901F027
:103E7000D0F80022774B01F0C3F832003B0001F08C
:103E8000E6F806000F0004000D00069A079B01F0FB
:103E90003FF9002830D001235B429C46E1440022D8
:103EA0007D4B3000390001F0B4F804000D0023E030
:103EB0001E9B04931D9B03931C9B0293089A099BD2
:103EC0000092019343460C9A5146584600F0FCF884
:103ED00011B0F0BCBB46B246A946A046F0BD0023D7
:103EE000002406930794069680231B069C4665448F
:103EF00007951AE7002399464B466333C62B1ED815
:103F000004261E9B1B0526D52B0023430FD0644A95
:103F1000644B0698079901F0F3F8002879D0002245
:103F2000614B0698079901F0DDF8002871D01C9BC1
:103F30004B4506DD4A46981A431E1C9303E00526AE
:103F4000DFE700231C938023DB001E9A1A431E9296
:103F50000026002399461D9B9E4264D29F1B02238C
:103F60001E9A1A400A921E9A134202D0002E00D0C6
:103F700000274B46002B07D022002B0006980799FC
:103F800001F047F80690079100220023089809994C
:103F900001F0A8F8002848D1444B1E9A134004931E
:103FA00003971C9B0293069B079C00930194434636
:103FB0000C9A5146584600F087F8002E00D187E74A
:103FC0001E9B9B063DD54525441C43460200514699
:103FD0002800D8474B46DA179B1853400522059214
:103FE000013E0496002203920A3202924A46D00F02
:103FF000019000934346220051465846FFF78AFD40
:104000000A9B002B00D163E702005F460C9E1D9DBA
:1040100054E01C9B002B9ED00D9B002B9BD01C9B27
:10402000013B1C9397E7002799E7069C079D220018
:10403000290080200006844661440B000692079305
:10404000AAE76525C0E7C046FFFFEF7FFFFFEFFF50
:1040500001FCFFFF0000F03FFB799F501344D33F6A
:10406000B3C8608B288AC63F0000F83F61436F6386
:10407000A787D23F71A379094F930A400000E03F20
:104080001655B5BBB16B0240EF39FAFE422EE63F42
:10409000FF03000000002C400000244000001840F6
:1040A0002D431CEBE2361A3F80842E41FFF7FFFFC1
:1040B000541C434651462020B8472200931BAB4274
:1040C000F6D3100004E7C046F0B5DE4657464E462C
:1040D0004546E0B595B00690079193469946209FD6
:1040E0001E9A1F9B1000190001F017F8002831D10B
:1040F00001225242BF4B1E981F9900F0F3FF002887
:1041000037D101225242BC4B1E981F9901F000F892
:1041100000283DD10022B94B1E981F9900F0F8FFEE
:10412000002850D10022B64B1E981F9900F0DAFFEC
:10413000002848D1002200231E981F9900F0D2FFCA
:10414000002850D100239846229B5B0500D4B6E09E
:10415000002458E0229B0393219B029303230193A5
:10416000A84B00934B465A4607990698FFF7F2FB77
:104170000EE1229B0393219B029304230193A24B04
:1041800000934B465A4607990698FFF7E3FBFFE07A
:104190000423229A1A4022990B4210D09B4B002AEA
:1041A0000FD0042222990391219902910192009348
:1041B0004B465A4607990698FFF7CCFBE8E0944B2C
:1041C000EDE70322EEE7229B0493219B03930297E2
:1041D0001E9B1F9C009301944B465A4607990698D4
:1041E000FFF768FDD4E01E9A1F9B0020002100F01D
:1041F000FEFE1E901F9101239846A5E70CAB3022CE
:104200001A55013F01341F2C01D8092FF6D81E98EA
:104210001F9900F0ADFF050000F092FF02000B00B7
:104220001E981F9900F0E3FEFA007A4B9B181A685B
:104230005B680A920B9300F00AFF0890099100F066
:10424000BBFF060000F078FF02000B0008980999F8
:1042500000F0CDFE0890099100226F4B00F058FF4E
:1042600000282ED00136300000F066FF02000B005F
:104270000A980B9900F03CFF002801D00135002678
:10428000002F2CD1280000F05BFF02000B001E98CD
:104290001F9900F0ACFE06000F0000225E4B00F0FC
:1042A00021FF002846D100225B4B3000390000F08E
:1042B0002FFF00283ED1EB073CD501353AE0062719
:1042C00046E70022544B0898099900F00BFF00289C
:1042D000D6D1002E01D0F307D2D50136D0E7AA46B9
:1042E0001F2C11D8013F0A21300000F03DFC651C55
:1042F00030310CAB19550A21300000F035FC092E85
:104300000ED906002C00EBE755461F2C0CD87B1E5F
:10431000002F09D00CAA302111551F000134F4E7F9
:104320002B0055461C00F0E71F2C03D80CAB2E22A7
:104330001A5501341F2C10D80A21280000F0ECFB7C
:10434000661C30310CAB19550A21280000F0E4FB43
:10435000051E01D03400EDE734000323229A1340F8
:10436000012B1CD01F2C06D84346002B32D00CAB9F
:104370002D221A550134229B0393219B0293019411
:104380000CAB00934B465A4607990698FFF7E2FAA2
:1043900015B0F0BCBB46B246A946A046F0BD219B75
:1043A000002B13D04346002B02D10C3313420FD005
:1043B000219B013B2193190003E00CAB30221A55DD
:1043C00001348C42CED21F2CF7D9CBE72199F8E7E4
:1043D0002199F6E7229B5B0704D50CAB2B221A55DB
:1043E0000134C8E7229B1B07C5D50CAB20221A5508
:1043F0000134C0E7FFFFEFFFFFFFEF7F65CDCD4149
:1044000065CDCDC134DA001038DA00102CDA001096
:1044100028DA001020DC00100000E03FF0B5DE4696
:1044200057464E464546E0B593B082468B46904689
:104430001193002900D1EBE200275546119B187813
:10444000002800D1E7E2252809D07C1C43463A0029
:104450005946A847119B013311932700EEE701331A
:1044600011930024119A11780B00203BD8B2102828
:1044700003D88300D048C3589F460B00303BDBB2C3
:10448000092B2CD92A292FD000230A93119B1A78A3
:104490002E2A39D000239A46119A1378683BD9B254
:1044A000122976D88B00C549CB589F4601231C435F
:1044B00001321192D6E702231C4301321192D1E757
:1044C00004231C4301321192CCE708231C43013220
:1044D0001192C7E710231C4301321192C2E711A8C1
:1044E000FFF726FA0A90D1E71C9B1A1D1C92186848
:1044F000002804DB0A90119B01331193C6E70223C5
:104500001C4343420A93F6E78022D20014435A1C0C
:1045100011925A781300303BDBB2092B04D92A2AB6
:1045200007D000239A46B7E711A8FFF701FA8246A1
:10453000B2E71C9B1A1D1C921868002804DB8246F7
:10454000119B01331193A7E70020F8E780235B005C
:104550002343511C119152786C2A01D01C0018E0A1
:10456000C0239B001C430131119112E0802323439F
:10457000511C11915278682A01D01C0009E0C02317
:104580001C430131119104E080235B001C43013284
:104590001192119B18780300253BDAB2532A00D9F7
:1045A0002CE29300864AD3589F4680239B001C43ED
:1045B00001321192EDE780235B001C43013211921E
:1045C000E7E7782809D0582838D06F2838D06228F3
:1045D00038D010239C430A2600E01026582833D0F8
:1045E000692803D0642801D00C229443630501D5C7
:1045F0000122944369282AD0642828D0A30500D535
:104600009FE0E30500D5B8E0630600D4CAE01C9A39
:10461000111D1C911168FF220A4005940A9B049306
:1046200053460393029600230193009243463A00B7
:1046300059462800FFF76EFA070027E01026CDE75D
:104640000826CBE70226C9E720221443C8E7A305C2
:1046500020D4E30550D4630666D51C9A111D1C9125
:104660001168FF220A40D317D118594005940A9BBC
:104670000493534603930296D20F0192009143464E
:104680003A0059462800FFF745FA0700119B01330D
:104690001193D3E61C9BDA1D07218A4311000831D0
:1046A0001C91116853689C46DB170C930D930C9A70
:1046B0000D9B100048400E90624653400F930E9899
:1046C0000F990C9A0D9B801A99410E900F910894A6
:1046D0000A9B07935346069304960023059363466B
:1046E000DA0F02920090019143463A0059462800A1
:1046F000FFF76EFA0700C9E71C9A111D1C9112689A
:10470000D317D118594005940A9B04935346039339
:104710000296D20F0192009143463A005946280072
:10472000FFF7F8F90700B1E7230605D51C9A111D1C
:104730001C910023D25E96E71C9A111D1C911268F1
:1047400091E71C9BDA1D07218A43110008311C9157
:1047500008940A9B079353460693049600230593F7
:104760000293136854680093019443463A005946F3
:104770002800FFF72DFA070088E71C9A111D1C91ED
:1047800005940A9B049353460393029600230193D6
:104790001368009343463A0059462800FFF7BAF9D8
:1047A000070073E723060DD51C9A111D1C91126892
:1047B0001204120C31E7C04640DA001084DA00100F
:1047C000D0DA00101C9A111D1C91126825E74628AA
:1047D0001AD01C9B0733072293431A0008321C92FD
:1047E00004940A9A0392524602925C681B680093F2
:1047F000019443463A0059462800FFF765FC07003C
:10480000119B0133119319E620231C43E1E767282C
:1048100001D0472802D180231B011C43452801D029
:10482000472801D120231C431C9B073307229343B5
:104830001A0008321C9204940A9A03925246029279
:104840005C681B680093019443463A00594628006F
:10485000FFF730FA0700119B01331193EEE50223B5
:104860001A002240924623421FD001241C9B1A1D8D
:104870001C927A1C9146187843463A005946A8473C
:104880005346002B16D1119B013311934F46D5E5AA
:10489000561C434659462020B847230032005C1C72
:1048A0009D42F5D83D001700E0E701233A002F00B4
:1048B0000A9DF4E74A46A9460A9D06E0571C43466E
:1048C00059462020C84734003A00661CA542F5D856
:1048D0004D469146D7E71C9B1A1D1C921B689946B2
:1048E0005346002B00D1013B4E4601E00136130038
:1048F0003278002A02D05A1E002BF7D14B46F21A0A
:1049000010928023DB0026001E401C4203D052453B
:1049100001D95346109302231A0022400B922342DE
:1049200005D03A0037004C46A946554620E03A00EB
:10493000109B5F46B3462E0006E0551C43463900E7
:104940002020B04723002A005C1C0A999942F4D821
:1049500035005E46BB46109437004C46A946554686
:1049600006E01D000134561C43465946C847320034
:104970002078002804D0002FF4D06B1E002DF0D139
:1049800017004D460B9B002B03D1119B0133119354
:1049900054E50A9F109B06E0561C434659462020CA
:1049A000A847230032005C1C9F42F5D81700ECE7B3
:1049B00021231C431C9B1A1D1C921B680093059409
:1049C0000823049353460393102302930023019377
:1049D00043463A0059462800FFF79CF80700119B10
:1049E000013311932AE57C1C43463A0059462520A1
:1049F000A847119B0133119327001FE57C1C4346F8
:104A00003A005946A847119B01331193270015E539
:104A10000A4B9A4610E5AA46474502D343465A1E1A
:104A200000E03A00434659460020D047380013B012
:104A3000F0BCBB46B246A946A046F0BD21390010E5
:104A40000EB410B585B0010007AC08CC0394012268
:104A5000009452420348FFF7E1FC05B010BC08BCCB
:104A600003B01847193900100CB410B584B00A000F
:104A700006AC08CC0394009401000448FFF7CEFC78
:104A800004B010BC08BC02B01847C0461939001069
:104A900000B585B0029003910121009313004A42B2
:104AA00002A90248FFF7BAFC05B000BD2339001087
:104AB00001480421014B1847A0060020E14A0010DC
:104AC00010B5010018231B8814221088984710BDC8
:104AD00010B5010018231B8816221088984710BDB6
:104AE000F0B5C64600B507000E0000250123984624
:104AF00000E00135B5420AD2AC003C192068FFF74E
:104B0000DFFF20600028F4D100239846F1E74046FB
:104B100080BCB846F0BD0000124A936F9B0815D2C6
:104B20009066D166002905D0FFE7FFE7FFE7516FE8
:104B3000106F704704B580210906C2175140002844
:104B400000D0C84307F0A8FB002104BDF0B5146EE7
:104B5000556E576F166FFFF7E3FF1466556657677C
:104B60001667F0BD000000D0114A936F9B0813D266
:104B700010665166002905D0FFE7FFE7FFE7516F98
:104B8000106F704704B5002801D00020C04307F023
:104B900083FB002104BDC046F0B5146E556E576FFF
:104BA000166FFFF7E5FF1466556657671667F0BD89
:104BB000000000D094464E4A926F9208624601D29D
:104BC00030E0C046F0B54A4EB56F6D08FCD3346E88
:104BD000756E776F366F00F025F89446444A146678
:104BE0005566576716676246F0BDC0469446404A10
:104BF000926F9208624601D258E0C046F0B53C4E32
:104C0000B56F6D08FCD3346E756E776F366F00F03C
:104C10004DF89446364A14665566576716676246DD
:104C2000F0BDC046002B24DB11D000293EDA00B5D0
:104C3000C943404200D1013100F038F8C943404235
:104C400000D10131DB43524200D1013300BD002AC3
:104C5000EBD1002801D1002905D00020C90FC907D8
:104C600001D1C043410800B507F006FB0022002334
:104C700000BD00B500290ADBDB43524200D10133FD
:104C800000F014F8C943404200D1013100BDC943CE
:104C9000404200D10131DB43524200D1013300F0E8
:104CA00005F8DB43524200D1013300BD002923D176
:104CB000002B18D1002A0CD0BC460D4F38667A66FE
:104CC00000210023FFE7FFE7FFE77A6F386F6746B1
:104CD0007047002801D00748010000B507F0CCFA62
:104CE0000022002300BD02000B00002000217047BD
:104CF000000000D0FFFFFFFF002B00D0BFE0130C2F
:104D000028D1002AE7D080B4114F39667A66FFE7D0
:104D1000FFE730B4040C7B6F396F1B0423433B6601
:104D20007A66FFE7FFE7FFE7C04684B27B6F3D6F1F
:104D30001B0423433B667A66FFE7FFE7C046002378
:104D40002C042D0C7A6F386F00196941B0BC704784
:104D5000000000D0F0B594460025140E01D11202D7
:104D60000835140F01D112010435940F01D19200BE
:104D70000235D40F01D152000135D40B0134254F37
:104D80007C66254C3C660E0C93B2FFE7FFE7FFE71D
:104D90003C6F6643360C7703BE467343DF0B5B0400
:104DA000C01AB941130C7343DB18C91ACE08664305
:104DB000360CB64493B273431F0F1B01C01AB9419E
:104DC000130C73431F0B1B05C01AB941860D8F02CC
:104DD0003E436643360C092D24DB520A7243801A87
:104DE0007703460A6643360C16235B1BDE40DF4022
:104DF000BF1964466643821B7046043506330100C2
:104E0000D940A840C01900D30131A24206D20023E4
:104E1000F0BD0000000000D0FFFFFFFF121B0130BB
:104E2000F3D3F1E709277F1BFE406446A2B2724329
:104E3000801A00D20139220C7243130C1204821A18
:104E400099410B007046043513370100F940A84022
:104E5000801900D30131002B02D1A2420AD2F0BD49
:104E6000013000D30131121BFAD2013BF8D1A2422A
:104E700000D2F0BD013000D30131121BF7E7F0B5CD
:104E80001C0C00D080E00CB400251C0A04D11B02CD
:104E9000160E3343120208351C0B04D11B01160FEA
:104EA0003343120104359C0B04D19B00960F33430E
:104EB00092000235DC0B02D192185B4101351C00D7
:104EC000971864410134464F7C66464C3C660E0C94
:104ED000FFE7FFE7FFE7C0463C6F6643360C77030A
:104EE000BE4697B27743C01B00D20139C01B00D227
:104EF00001399FB27743C91BC91B170C77437E0446
:104F0000FF0B801BB941CE086643360C0C2D33DBFA
:104F1000B644120B1F053A431B0B97B27743C01BD5
:104F200000D201399FB27743C91B170C77433E0467
:104F30003F0C801BB941860D8F023E4366432927F3
:104F40007F1BFE400C3D7746AF40BF1930BCA2B27C
:104F5000ABB272437343801A9941220C7243130C13
:104F60001204801A994102000B000137001BA9416D
:104F7000F9D2781E0021F0BD0C277F1BFE4077463A
:104F80007F0BAF40FF19E0E700245D1C07D0144FF2
:104F90007D663966FFE7FFE7FFE7FFE73C6F95B205
:104FA0009EB265436643401BB141150C1E0C654320
:104FB000664336042F0C3E432D04401BB1419942F9
:104FC00004D202000B0020000021F0BD01D190426C
:104FD000F7D3801A994101349942F2D3F6E70000E1
:104FE000000000D0FFFFFFFF48404140484018B498
:104FF0001B4B5B68FC46019308BD04DFAB5C0010F3
:1050000018B4174B1B68FC46019308BD00DFB55C64
:1050100000109446134A926F920809D2624618B45F
:105020000F4BDB68FC46019308BD0CDF6D5F001081
:105030000C4AF0B5146E556E576F166F6246FFF747
:10504000EEFF084A1466556657671667F0BD18B438
:10505000034B9B68FC46019308BD08DF115E0010FE
:1050600054330020000000D0FFB550404240504073
:1050700059404B40594000E0FFB5154F4C00640DBE
:1050800003D0BC4204D10C0314D80020090D09053B
:105090005C00640D03D0BC4204D11C030AD800227A
:1050A0001B0D1B0501264B4009D44B4003D58B42F9
:1050B00000D18242FFBD9942FCD19042FFBD0B431B
:1050C000DB1803431343F5D0C9434918FFBD000063
:1050D000FF07000000B5FFF7CFFF01D0002000BDA3
:1050E000012000BD00B5FFF7C7FF804100BDC046ED
:1050F00000B5FFF7C1FF01D9002000BD012000BDB0
:1051000000B5FFF7B1FF01D9002000BD012000BDAF
:1051100000B5FFF7A9FF804100BD012040054A000E
:10512000121804D85A00121801D800207047012024
:1051300070470020704700000021002805D170470B
:10514000C1174840401AFAD0C90713B5064B1B686F
:1051500098470CBC441CA2401005120B0349091BC4
:1051600009051943114310BD543400201F040000E9
:1051700010B54C00620D8023D218DB00D21A5B05FB
:105180007E2A10DD9E3A13DACC1709034908194329
:105190005242D140640001341532202A05DAD04051
:1051A0000843604310BD002010BD0846604310BD99
:1051B000C80FC018013810BD18B4044B5B6AFC4618
:1051C000019308BD24DF1D6100100000543300204E
:1051D00018B4044BDB6CFC46019308BD4CDFED6258
:1051E000001000005433002018B4044B1B6DFC4623
:1051F000019308BD50DF8963001000005433002084
:1052000070B513231C78012C14D0012C14DC022C53
:1052100002DC1F4A1F4B9A641F48FFF751FC1F4BCB
:10522000186070BD99001A481A4A885001331F2B24
:10523000F8D9EAE70023FAE71948FFF749FC050027
:105240001848FFF745FC023803789B007F2B19DDD7
:10525000802229000F4801F053FA022CD7D1124BBB
:105260001A88B5231B029A4209D1104B1A88104B99
:105270009A4204D10F4B1A880F4B9A42C7D0002094
:10528000FEF7F8F80D4B0E4A32210E48FEF758F89B
:10529000715C0010543300204C3300005434002063
:1052A000534400005346000054380000D838000032
:1052B000494600009C3800005946000070DC001090
:1052C0002CDD0010D0DC001070B504000D001600BD
:1052D000012A0ED0D20F92195210FFF7F5FF0200EB
:1052E0000B00FFF7B4FEF30703D522002B00FFF7F6
:1052F000AEFE70BDF0B5D6464F464646C0B588B046
:1053000014001D000E0D7605760D974B9846B0449F
:10531000964B9B1B009001910F0D7F0514D0944F6D
:10532000BE4211D0991900290ADD924881423ADD26
:10533000019BDB0FDB0700208F4A1A43110003E0BB
:105340000020019BDB0FD907FFF74EFF8B4A8C4BE8
:10535000FFF75FFE00228B4B00900191FFF7D8FE14
:1053600000280AD00022884B00980199FFF73FFEE1
:1053700000900191854B9846B0444346002B1BD0CA
:105380000022834B20002900FFF7BAFE00281FD01F
:105390004346002B19DB0020774908B0E0BCBA4631
:1053A000B146A846F0BD00201905009A019B1218CD
:1053B0004B4110001900C7E722002B00009801990B
:1053C000FFF745FE00F030FAE7E700200021E4E7B0
:1053D0000022704B20002900FFF78AFE002808D029
:1053E0004346002B02DB00200021D6E70020624963
:1053F000D3E72000290000F0C9F906000F000200E1
:105400000B0020002900FFF7F2FD029003911A2201
:1054100000F094F900F0BAF904000D0002000B004E
:10542000090D4905480D002913D05149884210D073
:105430001A3800280ADD4F49884200DC84E0EB0F6F
:10544000DB0700244C4A1A43150002E00024EB0F4E
:10545000DD0722002B0002980399FFF7C8FD069094
:10546000079130003900FFF783FE81460300414673
:105470004B439A464046FFF763FE22002B00049000
:105480000591FFF7E4FD06000F0000F07FF904002E
:105490000D00FFF76DFE8046D04422002B00300047
:1054A0003900FFF7A4FD04000D00069A079B04983D
:1054B0000599FFF7CCFD02000B0020002900FFF743
:1054C0009FFD049005914846FFF73AFE009A019B24
:1054D000FFF7BDFD04000D0000F058F906000F00B5
:1054E000FFF746FE804432003B0020002900FFF712
:1054F0007EFD049A059BFFF783FD04000D00029AD0
:10550000039B00980199FFF7A2FD22002B00FFF7F3
:1055100077FD00F089F904000D000B0D5B055A0DB5
:10552000002B00D139E7124B9A4200D135E74244B3
:10553000002A0EDD0F4B9A420FDDCB0FDB07002058
:105540000D4A1A43110028E70024134DA4185D41A9
:105550007FE70020CB0FD9071FE70020434619053E
:105560000019694119E7C04601FCFFFFFF03000075
:10557000FF070000FE0700000000F07FEF39FAFE91
:10558000422EE63F0000E03F0000F03F02FCFFFF3C
:105590000000B0400000B0C0000060FEF0B5D6468C
:1055A00000B582B001900E0000921D0003000C00B7
:1055B000CA0F9246002955DA2A0D5205520D584954
:1055C00052183ED434218A1A3DD45439501825D467
:1055D0001F318140012040429040009E86433000B0
:1055E0002E008E43310001432FD1342A2FD0203991
:1055F00051181CD42A00CA4001210A40002A28D090
:10560000180080263606A119009A2B00FFF7C6FF66
:105610008B19190002B080BCBA46F0BD2020801A58
:10562000012149420E00C64091403143D2E720217A
:10563000891A2800884001000098D04002000A43DF
:10564000DAE70022DAE70022D8E70022D6E70122D3
:10565000D4E7180080231B06E118009A2B00FFF7FF
:105660009DFFD7E700982900FFF782FD0700019A08
:10567000310D4905480D002907D02A49884213D029
:1056800033031B0B13435842584100280ED1002FFF
:1056900043D03B002033402B2DD9009A2B0001989A
:1056A0003100FFF727FEB5E75046EEE7200D400535
:1056B000400D1B4B9C46604480231B019F4204DA33
:1056C000194B9F4202DA184F00E0164F7843174BF0
:1056D000C318002B09DD164A934209DC0026070592
:1056E000002014498019794194E70020002191E7B6
:1056F000002011498EE7002F05DB3A0001983100A8
:10570000FFF7E2FD86E7019A330000200949FFF721
:1057100080FC01900E007F42EFE70020054979E709
:1057200001FCFFFFFF07000000F8FFFFFF03000080
:10573000FE0700000000F03F0000F07F30B50B0DC9
:105740005B055C0D002B14D00D4B9C4211D014193D
:10575000002C09DD0B4B9C420CDDC90FC90700244E
:1057600009480843050002E00024C90FCD072000C6
:10577000290030BD0024150524184D41F7E7C04627
:10578000FF070000FE0700000000F07F70B50B0D62
:105790005B055B0D224A944663445A1C26DB5A1C67
:1057A0002AD03422D21A002A1FDD3324E41A2023FF
:1057B0005B42E51827D40126AE4033000125A54001
:1057C0002A0012184B4120214942651821D4022693
:1057D000AE4031000225A5402800002544428D41FD
:1057E0001600264030002B40190070BD0022C90F62
:1057F000CB0710001900F8E7CB0FDB070020094AA0
:105800001A431100F1E720252D1B0126EE4033003D
:10581000D4E720252D1B0226EE403100DAE7C046F2
:1058200001FCFFFF0000F03F70B505000C000A0D01
:10583000284B9A4247D00022274B28002100FFF72F
:1058400057FC002842D10022244B28002100FFF7FA
:1058500057FC002802D00020214939E0280021000F
:10586000FFF794FFFFF784FC0600FFF769FC0200D6
:105870000B0028002100FFF7BAFB1A4A1A4BFFF76A
:10588000E6FBFFF7A5FC04000D000B0D5B055A0DB0
:10589000002B1DD0154B9A421AD0B218002A09DDF0
:1058A000134B9A420ADDCB0FDB0700200C4A1A4348
:1058B00011000DE00020CB0FD90709E000203105D1
:1058C0000019694104E00020002101E000200021CE
:1058D00070BDC046FF0F00000000B0C00000B04027
:1058E0000000F07FEF39FAFE422EE63FFF0700008E
:1058F000FE070000F0B583B0050000900C00019297
:105900001F000022B44B28002100FFF7E3FB002812
:1059100041D13E0D73055D0D002B3CD00022AF4BF5
:1059200000982100FFF7D6FB002803D0AC4B9D4226
:1059300000D181E1220D5305590D002B00D081E0EB
:10594000FA0F002F3FDB3B0D5B055B0DA5495B1894
:105950001CD43421CB1A19D45439581821D41F31EE
:105960008140012040429840019D854328003D0030
:105970008D432900014309D1342B22D020225242E9
:105980009A1817D4D7403A0001231A40002A00D1B0
:1059900055E1009D01E000258F4C2800210003B057
:1059A000F0BD2020C01A012149420D00C540994098
:1059B0002943D6E72022D21A9740019ADA403A4387
:1059C000E2E70122E2E73B0D5B055B0D854A9B1890
:1059D0001BD43422D31A18D4543A981820D41F3226
:1059E0008240012040429840019D854328003D00AF
:1059F00095432A00024308D1342B21D0203A9A182B
:105A000017D43900D14001231940002900D119E1F0
:105A1000E40FE40700227449214315000C00BCE7A1
:105A20002020C01A012252421500C5409A402A4344
:105A3000D7E72022D21A97400199D9403943E2E7AB
:105A40000121E2E7664B9A422CD0684B9A422FD054
:105A5000634B9E4200D1A9E0644B9E4200D1ABE073
:105A60003B0D5B055A0D002B00D1C5E05D4BD218F4
:105A700000D5C9E034239A1A002A00DCC6E0543B62
:105A8000D11800D59EE01F338B400121494291403F
:105A9000019A8A43390099430B00134300D0B7E0C1
:105AA0000133AAE0002F00DBCFE00025002474E7DB
:105AB000FA0F002F3ADB3B0D5B055B0D49495B1884
:105AC0001CD43421CB1A19D4543958181CD41F3182
:105AD0008140012040429840019C844320003C00CA
